:100000000C943A010C9459010C9459010C94590127
:100010000C9459010C9459010C9459010C94C40A84
:100020000C9422060C9459010C9459010C9459011A
:100030000C9459010C9459010C9459010C945901D8
:100040000C9459010C9459010C9459010C945901C8
:100050000C9459010C944C060C9459010C945901C0
:100060000C9459010C9459010C9459010C945901A8
:100070000C9459010C9459010C9459010C94590198
:100080000C9459010C9459010C9459010C94590188
:100090000C9459010C945901000000000000005F0D
:1000A00000000003000300143E143E14242A7F2A9B
:1000B000124333086661364955225000050300009B
:1000C000001C2241000041221C0014083E081408B4
:1000D000083E0808005030000008080808080060C2
:1000E00060000020100804023E5149453E00040211
:1000F0007F00426151494622414949361814127F16
:100100001027454545393E494949320101710907E2
:100110003649494936264949493E003636000000ED
:10012000563600000814224100141414141400411F
:1001300022140802015109063E4159555E7E090903
:10014000097E7F494949363E414141227F41414133
:100150003E7F494949417F090909013E4141493AE8
:100160007F0808087F00417F4100304040403F7FCA
:10017000081422417F404040407F020C027F7F02F2
:1001800004087F3E4141413E7F090909061E2121A5
:10019000215E7F09090976264949493201017F011B
:1001A000013F4040403F1F2040201F7F2010207F04
:1001B00041221C224107087008076151494543004C
:1001C0007F41000002040810200000417F0004026B
:1001D0000102044040404040000102040020545409
:1001E00054787F4444443838444444443844444474
:1001F0007F385454541804047E0505085454543C64
:100200007F0804047800447D40002040443D007F86
:100210001028440000417F40007C047804787C086A
:1002200004047838444444387C1414140808141422
:10023000147C007C080404485454542004043F44B3
:10024000443C4040207C1C2040201C3C4030403C32
:1002500044281028440C5050503C4464544C4400F2
:100260000836414100007F0000414136080002018C
:100270000204020011241FBECFEFD0E2DEBFCDBFCB
:1002800012E0A0E0B1E0E6E7F3E200E00BBF02C05D
:1002900007900D92A637B107D9F712E0A6E7B2E0B2
:1002A00001C01D92A239B107E1F70E94180B0C940E
:1002B000B9110C94000093E89093B00091E09093F2
:1002C000B1008093B30008959C0190937F028093C6
:1002D0007E0286E390E0809300402115310589F489
:1002E00080EF90E090937B0280937A0280E491E02B
:1002F00090937D0280937C0288E490E0809300419B
:100300003BC02130310589F480E491E090937B0279
:1003100080937A0280EF90E090937D0280937C023C
:1003200088EE90E08093004127C02230310589F4A7
:1003300080EF90E090937B0280937A0280E491E0DA
:1003400090937D0280937C0288E890E08093004146
:1003500013C02330310581F480E491E090937B0257
:1003600080937A0280EF90E090937D0280937C02EC
:1003700088E290E0809300418AE290E08093004020
:1003800020E030E0309300412093004180917A02D8
:1003900090917B02019790930041809300418BE202
:1003A00090E0809300403093004120930041809181
:1003B0007C0290917D0201979093004180930041CF
:1003C00008951F93682F873718F010E066E711C073
:1003D000883010F468E00CC08D3310F010E009C0D4
:1003E0008F3110F011E005C0803110F012E001C033
:1003F00013E081EB90E0809300401093004170E0A7
:10040000882777FD8095982F0E94ED0D9B01AC0108
:1004100060E070E080EF94E40E94110D0E943B0BBD
:1004200070E002C0759567951A95E2F760930041F8
:100430001F9108950F931F93DF93CF93CDB7DEB72E
:1004400028970FB6F894DEBF0FBECDBF29833A833D
:100450004B835C836D837E838F83988769817A81E8
:100460002B813C81ED81FE814F8158858AE290E0AD
:1004700080930040709300416093004130930041AD
:10048000209300418BE290E080930040F093004184
:10049000E093004150930041409300418CE290E092
:1004A000809300402F5F3F4F261B370B4F5F5F4FFE
:1004B0004E1B5F0B24173507C8F4842F877090E01C
:1004C000829FB001839F700D929F700D1124F3E005
:1004D00056954795FA95E1F7842F90E0829FF001B9
:1004E000839FF00D929FF00D112418C0822F87700A
:1004F00090E0849FB001859F700D949F700D112432
:10050000E3E036952795EA95E1F7822F90E0849F06
:10051000F001859FF00D949FF00D1124862F8770B8
:1005200005C0109300410093004181508823C9F712
:10053000CB0123E0969587952A95E1F78E0F9F1FB3
:1005400021C010930041009300411093004100939B
:10055000004110930041009300411093004100932B
:10056000004110930041009300411093004100931B
:10057000004110930041009300411093004100930B
:10058000004101970097E9F628960FB6F894DEBF70
:100590000FBECDBFCF91DF911F910F910895EF92C4
:1005A000FF920F931F93DF93CF93CDB7DEB72897BA
:1005B0000FB6F894DEBF0FBECDBF29833A834B83BD
:1005C0005C836D837E838F83988729813A81AB8199
:1005D000BC81ED80FE806F8178858AE290E0809317
:1005E00000403093004120930041B0930041A0931C
:1005F00000418BE290E080930040F0920041E09255
:10060000004170930041609300418CE290E0809340
:1006100000400FC0F801819191918F0190930041AA
:10062000809300414F5F5F4F6417750798F72F5F06
:100630003F4FA217B30710F0A701F6CF28960FB6C9
:10064000F894DEBF0FBECDBFCF91DF911F910F9108
:10065000FF90EF9008950F931F93DF93CF93CDB743
:10066000DEB728970FB6F894DEBF0FBECDBF10924D
:1006700081021092800210928302109282022091D5
:100680007A0230917B022150304080917C0290911F
:100690007D0201971A821982422F3C832B831E828E
:1006A0001D8298878F83009186021091870229818D
:1006B0003A815C816D817E8198850E941A0228961C
:1006C0000FB6F894DEBF0FBECDBFCF91DF911F9163
:1006D0000F91089586E08093750080E88093740000
:1006E0003F9A249A80ED97E00197F1F7479880E4CC
:1006F0009CE90197F1F7479A80EB94E028EC30E011
:10070000F9013197F1F70197D9F788E290E08093EA
:10071000004081E190E08093004088E592E028EC81
:1007200030E0F9013197F1F70197D9F741E050E056
:100730008BEC90E0809300404093004180EC90E08F
:100740008093004088E096E29093004180930041BE
:1007500020E130E081EC90E0809300402093004164
:1007600085EC90E0809300408EE395E39093004108
:100770008093004125EB30E087EC90E080930040CF
:100780002093004186EF90E0809300404093004129
:1007900080E090E0909300418093004125E530E0B7
:1007A0008AE390E0809300402093004180E090E055
:1007B0000E9464010E942B03109281021092800219
:1007C0001092830210928202109287021092860287
:1007D0008FEF9FEF909385028093840289E290E0EF
:1007E0008093004084EF91E028EC30E0F9013197EC
:1007F000F1F70197D9F780E090E025E330E020930E
:1008000000408093004180916A00806280936A007A
:100810002C9A0895CF92DF92EF92FF920F931F933D
:10082000CF93DF93982F209180023091810289012C
:100830000C5F1F4FA0918202B091830280528F35CE
:1008400008F083C0ED01279685E09802F00111249D
:10085000E850F0408BE290E080930040B09300417C
:10086000A0930041D0930041C09300419AE2C92E69
:10087000D12C8CE2E82EF12C29C0C092004030939C
:100880000041209300413093004120930041E092C9
:1008900000407491AD0161E013C0862F872329F0D9
:1008A000809184029091850204C08091860290918B
:1008B000870290930041809300414F5F5F4F660F26
:1008C000C417D50750F731962F5F3F4F0217130714
:1008D000A0F68AE290E0809300403093004120939C
:1008E000004130930041209300418CE290E08093DE
:1008F00000409D010AC080918602909187029093EA
:100900000041809300412F5F3F4FC217D30798F7F4
:10091000809180029091810206969093810280934B
:10092000800220917A0230917B028217930768F04F
:100930001092810210928002809182029091830233
:1009400008969093830280938202DF91CF911F914A
:100950000F91FF90EF90DF90CF9008951F93CF936A
:10096000DF93EC0110E003C00E940A041F5FFE0148
:10097000E10FF11D80818823B9F7DF91CF911F919D
:1009800008951F93CF93DF93EC01709381026093DE
:100990008002509383024093820210E003C00E94C1
:1009A0000A041F5FFE01E10FF11D80818823B9F762
:1009B000DF91CF911F910895E1E6F0E080E8808318
:1009C000108284B980EB8EB98CE388B980EC8DBB42
:1009D00080E580936A0092E094BD83E085BD8CE75A
:1009E00087BD90936E000895813049F1813030F0D9
:1009F0008230A1F1833009F076C051C0809130017E
:100A0000909131010796909389028093880280919A
:100A10003001909131010B9690938B0280938A0262
:100A200080912E0190912F01029690938D028093D8
:100A30008C0280912E0190912F01099650C08091D7
:100A4000300190913101029690938902809388023F
:100A5000809130019091310109962FC08091300131
:100A6000909131010796909389028093880280913A
:100A70003001909131010B9690938B0280938A0202
:100A800080912E0190912F01099690938D02809371
:100A90008C0280912E0190912F010F9620C08091A1
:100AA00030019091310109969093890280938802D8
:100AB00080913001909131010F9690938B02809339
:100AC0008A0280912E0190912F01079690938D02BA
:100AD00080938C0280912E0190912F010B96909320
:100AE0008F0280938E0281E080934D010895282F1C
:100AF0006799A7C08091770290E0FC01B3E0EE0F08
:100B0000FF1FBA95E1F7E80FF91FEE5CFE4F8081F9
:100B10008D3209F096C02130A9F0213028F0223022
:100B2000F9F02330C1F52AC08091880290918902A2
:100B3000282F2F5F40918C0250918D0243505040DE
:100B400065E529C08091880290918902282F235061
:100B500040918C0250918D024F5F5F4F6CE41BC03F
:100B60008091880290918902282F2F5F40918E02F8
:100B700050918F024D5F5F4F64E40DC080918A02F7
:100B800090918B02282F2D5F40918C0250918D0205
:100B90004F5F5F4F62E58091770290E0FC01A3E038
:100BA000EE0FFF1FAA95E1F7E80FF91FEE5CFE4F6D
:100BB00060838091770290E030E0FC0173E0EE0FFB
:100BC000FF1F7A95E1F7E80FF91FEE5CFE4F3283C5
:100BD00021838091770290E0FC0163E0EE0FFF1F1C
:100BE0006A95E1F7E80FF91FEE5CFE4F348323832B
:100BF0008091770290E0FC0133E0EE0FFF1F3A9501
:100C0000E1F7E80FF91FEE5CFE4F568345838091B4
:100C1000770290E0FC0123E0EE0FFF1F2A95E1F739
:100C2000E80FF91FEE5CFE4F5087478380917702F3
:100C30008F5F8093770280917702833010F010925B
:100C4000770208951F920F920FB60F920BB60F9274
:100C500011242F933F934F935F936F937F938F93C1
:100C60009F93AF93BF93EF93FF93809176020E947F
:100C70007705FF91EF91BF91AF919F918F917F91F8
:100C80006F915F914F913F912F910F900BBE0F90FD
:100C90000FBE0F901F9018951F920F920FB60F92D4
:100CA00011242F933F938F939F938CB190E084FDF9
:100CB00093E085FF02C081E0982780917902891B2B
:100CC000282F332727FD309520FF0FC090937902FE
:100CD0008091900290919102019722703070820F62
:100CE000931F90939102809390029F918F913F91D7
:100CF0002F910F900FBE0F901F901895F894809130
:100D00009002909191022091900230919102217075
:100D100030703093910220939002789485950895D5
:100D2000BF92CF92DF92EF92FF920F931F93DF93C8
:100D3000CF93CDB7DEB768970FB6F894DEBF0FBE7E
:100D4000CDBFCC24DD249DE2B92ED60183E0AA0FCD
:100D5000BB1F8A95E1F7AC0DBD1DA15BBE4F8C9109
:100D60008D3209F43CC111968D919C911297149685
:100D70009C938E93139715968D919C911697189628
:100D80009C938E9317978C918C34F9F08D3434F4B6
:100D9000843469F1863409F0C4C079C08235C9F160
:100DA000853509F0BEC015968D919C9116970297D6
:100DB00016969C938E93159715968D919C911697E8
:100DC000865F9F4F0CF0ADC035C011968D919C9100
:100DD0001297029712969C938E93119711968D916C
:100DE0009C911297865F9F4F0CF09BC023C0159675
:100DF0008D919C911697029616969C938E931597BB
:100E000015968D919C911697805491400CF489C051
:100E100011C011968D919C911297029612969C93F7
:100E20008E93119711968D919C911297803F910509
:100E30000CF477C0BC9211964D915C91129711966B
:100E40006D917C9112971596ED91FC9116971596E0
:100E50008D919C911697242F5A834983655F7F4F0C
:100E6000462F7C836B836E2FFE83ED830B969887D2
:100E70008F833A815C817E81988500E010E00E943A
:100E80001A02809178028150809378024AC01196AC
:100E90002D913C91129780913001909131018217F0
:100EA000930730F411968D919C911297019710C081
:100EB00011962D913C9112978091300190913101C2
:100EC0002817390748F411968D919C911297019635
:100ED00012969C938E931197F60103E0EE0FFF1F7D
:100EE0000A95E1F7EC0DFD1DE15BFE4F2581368192
:100EF00080912E0190912F018217930720F4858114
:100F0000968101970CC02581368180912E019091A8
:100F10002F012817390728F4858196810196968339
:100F20008583760113E0EE0CFF1C1A95E1F7EC0CBB
:100F3000FD1C8FE491E0E80EF91ED70111964D914A
:100F40005C91129711968D919C91129715966D91C7
:100F50007C91169715962D913C9116975A87498743
:100F60000B969C878B877E876D87255F3F4F388BDD
:100F70002F8713964D915C91149713966D917C91E8
:100F800014971796ED91FC91189717968D919C9157
:100F90001897242F5A8B498B655F7F4F462F7C8B88
:100FA0006B8B6E2FFE8BED8B0B96988F8F8B3A8908
:100FB0005C897E89988D00E010E00E941A02F7019A
:100FC00080818D3261F029853A854B855C856D8500
:100FD0007E858F8598890FEF1FEF0E941A02089473
:100FE000C11CD11CF3E0CF16D10409F0AECE689637
:100FF0000FB6F894DEBF0FBECDBFCF91DF911F912A
:101000000F91FF90EF90DF90CF90BF900895BF9227
:10101000CF92DF92EF92FF920F931F93DF93CF93C4
:10102000CDB7DEB768970FB6F894DEBF0FBECDBF61
:10103000CC24DD244DE2B42ED60133E0AA0FBB1F31
:101040003A95E1F7AC0DBD1DAE5CBE4F8C918D3273
:1010500009F4EAC011968D919C91129714969C9375
:101060008E93139715968D919C91169718969C9335
:101070008E9317978C918C34E9F08D3424F484345A
:1010800009F072C029C08235C1F1853509F06CC004
:1010900015968D919C911697029716969C938E9318
:1010A000159715968D919C9116978E5F9F4F0CF01A
:1010B0005BC033C011968D919C9112970297129646
:1010C0009C938E93119711968D919C9112978E5FA0
:1010D0009F4F0CF049C021C015968D919C91169799
:1010E000029616969C938E93159715968D919C91CA
:1010F000169780549140C4F110C011968D919C9127
:101100001297029612969C938E93119711968D9139
:101110009C911297803F91053CF1BC9211964D91A4
:101120005C91129711966D917C9112971596ED91A5
:10113000FC91169715968D919C911697242F5A83A2
:1011400049836D5F7F4F462F7C836B836E2FFE83B9
:10115000ED83039698878F833A815C817E819885A1
:1011600000E010E00E941A02760123E0EE0CFF1C62
:101170002A95E1F7EC0CFD1C82E391E0E80EF91EE4
:10118000D70111964D915C91129711968D919C917A
:10119000129715966D917C91169715962D913C910D
:1011A00016975A87498703969C878B877E876D871A
:1011B0002D5F3F4F388B2F8713964D915C9114977D
:1011C00013966D917C9114971796ED91FC91189759
:1011D00017968D919C911897242F5A8B498B6D5F90
:1011E0007F4F462F7C8B6B8B6E2FFE8BED8B039688
:1011F000988F8F8B3A895C897E89988D00E010E00A
:101200000E941A02F70180818D3271F0009128014D
:101210001091290129853A854B855C856D857E85F0
:101220008F8598890E941A020894C11CD11CF3E092
:10123000CF16D10409F000CF68960FB6F894DEBF40
:101240000FBECDBFCF91DF911F910F91FF90EF9017
:10125000DF90CF90BF900895EF92FF920F931F936E
:10126000DF93CF93CDB7DEB760970FB6F894DEBFAC
:101270000FBECDBF0091300110913101E0902E01E1
:10128000F0902F01329912C080913001909131017C
:101290000B9760F08091300190913101019790930C
:1012A00031018093300181E080934D01349913C066
:1012B0008091300190913101823D910560F48091DF
:1012C000300190913101019690933101809330016A
:1012D00081E080934D01339912C080912E0190914D
:1012E0002F010B9760F080912E0190912F010197B3
:1012F00090932F0180932E0181E080934D013599C9
:1013000013C080912E0190912F018252914060F480
:1013100080912E0190912F01019690932F0180933F
:101320002E0181E080934D01809176020E94F404A9
:1013300080914D01882309F457C0202F1A83098317
:10134000C8014196482F9C838B836E2DFE82ED82CF
:10135000C701419698878F833A815C817E81988509
:1013600000E010E00E941A024091300150913101DA
:101370006091300170913101E0912E01F0912F01C7
:1013800080912E0190912F01242F5A8749876F5EFB
:101390007F4F462F7C876B876E2FFE87ED874196A8
:1013A000988B8F8700912A0110912B013A855C85DB
:1013B0007E8598890E941A0200912C0110912D01BE
:1013C000209188023091890240918A0250918B02CB
:1013D00060918C0270918D0280918E0290918F02AB
:1013E0000E941A0210924D0180E29EE40197F1F7EB
:1013F00060960FB6F894DEBF0FBECDBFCF91DF91E0
:101400001F910F91FF90EF900895EF92FF920F932D
:101410001F93CF93DF9380917802833008F0ADC0A3
:10142000EE24FF24F70163E0EE0FFF1F6A95E1F75A
:10143000EE0DFF1DE15BFE4F80818D3209F095C0FE
:101440000E944D1165E070E00E949410823011F10D
:10145000833030F4882351F0813009F06CC010C023
:10146000833011F1843009F066C028C00E944D110C
:1014700068E171E00E949410EC012A9612E537C0F1
:101480000E944D1168E171E00E949410EC012A96CF
:101490001CE438C00E944D1162ED70E00E9494106F
:1014A000082F065F15E539C00E944D1162ED70E00E
:1014B0000E949410082F065F14E43BC00E944D1157
:1014C00064E070E00E949410813099F0813030F037
:1014D0008230D1F0833021F116E42DC00E944D11ED
:1014E00068E171E00E949410EC012A9616E400E095
:1014F00022C00E944D1168E171E00E949410EC013D
:101500002A9616E406EE17C00E944D1162ED70E0B7
:101510000E949410082F065F16E4C2E2D1E00BC0CF
:101520000E944D1162ED70E00E949410082F065F3A
:1015300016E4C0E0D0E0F70153E0EE0FFF1F5A952C
:10154000E1F7EE0DFF1DE15BFE4F1083802F90E071
:101550009283818394838383D683C583D087C78313
:10156000809178028F5F809378020894E11CF11CCF
:1015700084E0E816F10409F055CFDF91CF911F9177
:101580000F91FF90EF9008951F920F920FB60F9258
:101590000BB60F9211242F933F934F935F936F934A
:1015A0007F938F939F93AF93BF93EF93FF9340915C
:1015B0007602F894209190023091910280919002ED
:1015C000909191028170907090939102809390021B
:1015D00078942595240F27FF02C023E003C0243010
:1015E0000CF020E0209376020E942C090E9407084C
:1015F00080914E01882311F0815005C00E94050A98
:101600000E94900684E080934E01FF91EF91BF917C
:10161000AF919F918F917F916F915F914F913F918A
:101620002F910F900BBE0F900FBE0F901F9018952B
:101630000E94DC040E946A0380E091E00E94AE04F4
:1016400081E191E068E270E040EA50E00E94C1046C
:101650006799FECF86B590E00E9452110E942B033D
:1016600088E893E128EC30E0F9013197F1F7019730
:10167000D9F77894FFCFEF92FF920F931F937B01DE
:101680008C0120E030E040E05FE40E94BD0D882343
:101690008CF0C801B70120E030E040E05FE40E9438
:1016A000B30C0E944B0E9B01AC01205030404040D7
:1016B000504806C0C801B7010E944B0E9B01AC0107
:1016C000B901CA011F910F91FF90EF900895A0E01A
:1016D000B0E0EDE6FBE00C94BB10DC012B01FA015D
:1016E0009C91923008F439C1EB018881823008F472
:1016F00033C1943069F4843009F02FC111969C9164
:1017000011978981981709F428C1AAE6B1E025C18B
:10171000843009F421C18230A9F4923009F01DC14E
:101720009A01AD0188E0EA010990AE01E901099250
:101730009E018150C1F7E201898111969C91892314
:10174000818308C1923009F407C112962D903C9014
:101750001397EB018A819B811496AD90BD90CD903B
:10176000DC901797EC80FD800E811F819101281B72
:10177000390BB90137FF04C066277727621B730B4B
:10178000603271050CF061C0121613066CF537015A
:101790004801062E04C096948794779467940A941F
:1017A000D2F721E030E040E050E004C0220F331FC8
:1017B000441F551F6A95D2F7215030404040504099
:1017C0002E213F214023512321153105410551058B
:1017D00021F021E030E040E050E079018A01E62884
:1017E000F728082919293CC0232BD1F1260E371ED2
:1017F00035014601062E04C0969487947794679429
:101800000A94D2F721E030E040E050E004C0220F1B
:10181000331F441F551F6A95D2F721503040404076
:1018200050402A213B214C215D21211531054105E4
:10183000510521F021E030E040E050E059016A011B
:10184000A628B728C828D9280BC0821593052CF0E4
:101850001C01AA24BB24650103C0EE24FF248701D8
:1018600011969C91D20111968C91981709F445C05C
:10187000992339F0A80197012A193B094C095D0900
:1018800006C0A60195012E193F09400B510B57FDCB
:1018900008C0118233822282248335834683578392
:1018A0001DC081E081833382228288279927DC0151
:1018B000821B930BA40BB50B84839583A683B783FC
:1018C0000DC0220F331F441F551F248335834683C9
:1018D0005783828193810197938382832481358109
:1018E00046815781DA01C9010197A109B1098F5FCA
:1018F0009F4FAF4FBF4328F30BC0918333822282A7
:10190000EA0CFB1C0C1D1D1DE482F5820683178367
:1019100083E08083248135814681578157FF1AC037
:10192000C901AA2797FDA095BA2F81709070A07069
:10193000B0705695479537952795822B932BA42BFE
:10194000B52B84839583A683B78382819381019687
:1019500093838283DF0101C0D201CD01CDB7DEB711
:10196000E2E10C94D710A0E2B0E0E9EBFCE00C94CB
:10197000C71069837A838B839C832D833E834F8337
:101980005887E9E0EE2EF12CEC0EFD1ECE010196FB
:10199000B7010E94C30F8E010F5E1F4FCE01059647
:1019A000B8010E94C30F8A8991E089278A8BC701F9
:1019B000B801AE01475E5F4F0E94670B0E94EE0EBA
:1019C000A096E6E00C94E310A0E2B0E0EAEEFCE0C2
:1019D0000C94C71069837A838B839C832D833E8309
:1019E0004F835887F9E0EF2EF12CEC0EFD1ECE014F
:1019F0000196B7010E94C30F8E010F5E1F4FCE01EB
:101A00000596B8010E94C30FC701B801AE01475E39
:101A10005F4F0E94670B0E94EE0EA096E6E00C94CA
:101A2000E310A8E1B0E0E7E1FDE00C94C3106983A6
:101A30007A838B839C832D833E834F835887B9E0C1
:101A4000EB2EF12CEC0EFD1ECE010196B7010E948B
:101A5000C30F8E010F5E1F4FCE010596B8010E9485
:101A6000C30F2985223008F47EC03989323010F442
:101A7000B8017CC08A859A8989278A87243011F029
:101A8000223031F4231709F06EC06AE671E06EC0AF
:101A9000343039F41D861E861F86188A1C861B86E4
:101AA00004C0323021F484E08987B7015FC02B8500
:101AB0003C858B899C89281B390B3C872B87ED84BF
:101AC000FE840F851889AD88BE88CF88D88CEA142B
:101AD000FB040C051D0540F4EE0CFF1C001F111F3C
:101AE000215030403C872B8720E030E040E050E040
:101AF00080E090E0A0E0B0E460E070E0EA14FB0475
:101B00000C051D0540F0282B392B4A2B5B2BEA18BE
:101B1000FB080C091D09B695A79597958795EE0CBE
:101B2000FF1C001F111F6F5F7F4F6F31710531F771
:101B3000DA01C9018F779070A070B0708034910580
:101B4000A105B10561F427FD0AC0E114F104010506
:101B5000110529F0205C3F4F4F4F5F4F20782D87B4
:101B60003E874F87588BBE01675F7F4FCB010E9436
:101B7000EE0E6896EAE00C94DF10A8E1B0E0E3EC2A
:101B8000FDE00C94C71069837A838B839C832D833B
:101B90003E834F83588789E0E82EF12CEC0EFD1E22
:101BA000CE010196B7010E94C30F8E010F5E1F4F39
:101BB000CE010596B8010E94C30F8985823040F09E
:101BC0008989823028F0C701B8010E943B1001C00A
:101BD0008FEF6896E6E00C94E310A8E0B0E0E3EF46
:101BE000FDE00C94C4109B01AC0183E08983DA0111
:101BF000C9018827B7FD83959927AA27BB27B82E47
:101C0000211531054105510519F482E089833AC057
:101C10008823A9F0203080E0380780E0480780E87A
:101C2000580729F460E070E080E09FEC30C0EE24BB
:101C3000FF248701E21AF30A040B150B02C0790195
:101C40008A018EE1C82ED12CDC82CB82ED82FE820D
:101C50000F831887C801B7010E949F0E01971816BD
:101C6000190684F4082E04C0EE0CFF1C001F111F7F
:101C70000A94D2F7ED82FE820F831887C81AD90A18
:101C8000DC82CB82BA82CE0101960E94EE0E2896AB
:101C9000E9E00C94E010ACE0B0E0E1E5FEE00C948B
:101CA000CB1069837A838B839C83CE010196BE011E
:101CB0006B5F7F4F0E94C30F8D81823061F1823054
:101CC00050F1843021F48E81882351F12EC02F8170
:101CD000388537FD20C06E812F3131051CF0662319
:101CE000F9F023C08EE190E0821B930B29853A85A1
:101CF0004B855C8504C056954795379527958A9501
:101D0000D2F76623B1F050954095309521953F4F1D
:101D10004F4F5F4F0EC020E030E040E050E009C080
:101D20002FEF3FEF4FEF5FE704C020E030E040E0EF
:101D300050E8B901CA012C96E2E00C94E710EF924A
:101D4000FF920F931F937B018C0180E0E81680E0E7
:101D5000F80681E0080780E0180788F48FEFE8169E
:101D6000F1040105110531F028F088E090E0A0E0D1
:101D7000B0E017C080E090E0A0E0B0E012C080E0EA
:101D8000E81680E0F80680E0080781E0180728F0F0
:101D900088E190E0A0E0B0E004C080E190E0A0E045
:101DA000B0E020E230E040E050E0281B390B4A0B65
:101DB0005B0B04C016950795F794E7948A95D2F7C4
:101DC000F701EE58FE4F8081281B31094109510966
:101DD000C9011F910F91FF90EF900895DF92EF924C
:101DE000FF920F931F93FC01E480F5800681178119
:101DF000D1808081823048F480E090E0A0E1B0E0C2
:101E0000E82AF92A0A2B1B2BA5C0843009F49FC0AD
:101E1000823021F4EE24FF24870105C0E114F1048F
:101E20000105110519F4E0E0F0E096C062817381CC
:101E30009FEF623879070CF05BC022E83FEF261B6A
:101E4000370B2A3131052CF020E030E040E050E043
:101E50002AC0B801A701022E04C076956795579550
:101E600047950A94D2F781E090E0A0E0B0E004C08A
:101E7000880F991FAA1FBB1F2A95D2F70197A109A6
:101E8000B1098E219F21A023B1230097A105B1059F
:101E900021F081E090E0A0E0B0E09A01AB01282BB6
:101EA000392B4A2B5B2BDA01C9018F779070A07018
:101EB000B07080349105A105B10539F427FF09C040
:101EC000205C3F4F4F4F5F4F04C0215C3F4F4F4F4F
:101ED0005F4FE0E0F0E02030A0E03A07A0E04A07E2
:101EE000A0E45A0710F0E1E0F0E079018A0127C090
:101EF0006038710564F5FB01E158FF4FD801C70157
:101F00008F779070A070B07080349105A105B105F5
:101F100039F4E7FE0DC080E490E0A0E0B0E004C03A
:101F20008FE390E0A0E0B0E0E80EF91E0A1F1B1F4F
:101F300017FF05C016950795F794E794319687E04B
:101F400016950795F794E7948A95D1F705C0EE2486
:101F5000FF248701EFEFF0E06E2F67956627679506
:101F6000902F9F77D794DD24D7948E2F8695492F75
:101F7000462B582F5D29B701CA011F910F91FF9081
:101F8000EF90DF900895FC01DB01408151812281B7
:101F9000622F6F7770E0221F2227221F9381892FE3
:101FA000880F822B282F30E0991F9927991F1196AF
:101FB0009C93119721153105A9F54115510561052E
:101FC000710511F482E037C082E89FEF13969C936D
:101FD0008E9312979A01AB0167E0220F331F441FC3
:101FE000551F6A95D1F783E08C930DC0220F331FE4
:101FF000441F551F12968D919C911397019713962C
:102000009C938E931297203080E0380780E0480739
:1020100080E4580758F314962D933D934D935C93A9
:10202000179708952F3F310579F441155105610542
:10203000710519F484E08C93089564FF03C081E076
:102040008C9312C01C9210C02F57304013963C93B3
:102050002E93129783E08C9387E0440F551F661FE1
:10206000771F8A95D1F7706414964D935D936D93A5
:102070007C93179708951F93DC01FB019C9192308C
:1020800008F447C08081823008F443C0943051F492
:1020900011961C91843099F58181682F70E0611B45
:1020A00071093FC0843021F0923031F48230B9F1AF
:1020B0008181882389F12DC011961C91119782305E
:1020C000F1F081811817D9F412962D913C91139754
:1020D000828193818217930794F028173907BCF007
:1020E00014968D919D910D90BC91A02D24813581E8
:1020F00046815781281739074A075B0718F41123CF
:1021000041F00AC082179307A407B50740F41123D2
:1021100019F061E070E005C06FEF7FEF02C060E092
:1021200070E0CB011F91089597FB092E07260AD076
:1021300077FD04D00CD006D000201AF4709561957C
:102140007F4F0895F6F7909581959F4F0895AA1BAC
:10215000BB1B51E107C0AA1FBB1FA617B70710F092
:10216000A61BB70B881F991F5A95A9F780959095C4
:10217000BC01CD0108952F923F924F925F926F92D2
:102180007F928F929F92AF92BF92CF92DF92EF9207
:10219000FF920F931F93CF93DF93CDB7DEB7CA1B88
:1021A000DB0B0FB6F894DEBF0FBECDBF09942A88B3
:1021B000398848885F846E847D848C849B84AA845B
:1021C000B984C884DF80EE80FD800C811B81AA81E8
:1021D000B981CE0FD11D0FB6F894DEBF0FBECDBFB3
:1021E000ED010895AF92BF92CF92DF92EF92FF92EE
:1021F0000F931F93CF93DF93EC01A880B980CA801F
:10220000DB80A114B104C104D10441F484E2A82EFE
:1022100089EDB82E8BE5C82E87E0D82EC601B50112
:102220002DE133EF41E050E00E947C1127EA31E4D8
:1022300040E050E00E945D117B018C01C601B501B8
:102240002DE133EF41E050E00E947C11CA01B90159
:102250002CEE34EF4FEF5FEF0E945D116E0D7F1D8E
:10226000801F911F97FF04C06150704080409048CC
:10227000688379838A839B839B013F77C901DF91C0
:10228000CF911F910F91FF90EF90DF90CF90BF9073
:10229000AF9008950E94F210089582E792E00E94A4
:1022A000F2100895A0E0B0E0809372029093730260
:1022B000A0937402B09375020895629FD001739F3A
:1022C000F001829FE00DF11D649FE00DF11D929FD2
:1022D000F00D839FF00D749FF00D659FF00D992711
:1022E000729FB00DE11DF91F639FB00DE11DF91F35
:1022F000BD01CF011124089597FB092E05260ED0AC
:1023000057FD04D014D00AD0001C38F450954095E5
:10231000309521953F4F4F4F5F4F0895F6F79095B9
:102320008095709561957F4F8F4F9F4F0895A1E2E3
:102330001A2EAA1BBB1BFD010DC0AA1FBB1FEE1F3F
:10234000FF1FA217B307E407F50720F0A21BB30B8A
:10235000E40BF50B661F771F881F991F1A9469F706
:1023600060957095809590959B01AC01BD01CF0162
:062370000895F894FFCF70
:102376005374617274206D656E7520746573742E66
:102386000050726573732073776974636820746F85
:102396002073746172742E0000F81F00108496007A
:1023A60064002D00000000000000002D0000000069
:1023B600000000002D0000000000000000010A2DB2
:1023C60000000000000000002D00000000000000DA
:1023D600002D0000000000000000000000000000CA
:1023E60000000001020203030303040404040404BE
:1023F6000404050505050505050505050505050589
:102406000505060606060606060606060606060668
:102416000606060606060606060606060606060656
:102426000606070707070707070707070707070738
:102436000707070707070707070707070707070726
:102446000707070707070707070707070707070716
:102456000707070707070707070707070707070706
:1024660007070808080808080808080808080808E8
:1024760008080808080808080808080808080808D6
:1024860008080808080808080808080808080808C6
:1024960008080808080808080808080808080808B6
:1024A60008080808080808080808080808080808A6
:1024B6000808080808080808080808080808080896
:1024C6000808080808080808080808080808080886
:1024D6000808080808080808080808080808080876
:0624E600080801000000DF
:00000001FF
