:100000000C943A010C9459010C9459010C94590127
:100010000C9459010C9459010C9459010C944E08FC
:100020000C94BD060C9459010C9459010C9459017F
:100030000C9459010C9459010C9459010C945901D8
:100040000C9459010C9459010C9459010C945901C8
:100050000C9459010C94E7060C9459010C94590125
:100060000C9459010C9459010C9459010C945901A8
:100070000C9459010C9459010C9459010C94590198
:100080000C9459010C9459010C9459010C94590188
:100090000C9459010C945901000000000000005F0D
:1000A00000000003000300143E143E14242A7F2A9B
:1000B000124333086661364955225000050300009B
:1000C000001C2241000041221C0014083E081408B4
:1000D000083E0808005030000008080808080060C2
:1000E00060000020100804023E5149453E00040211
:1000F0007F00426151494622414949361814127F16
:100100001027454545393E494949320101710907E2
:100110003649494936264949493E003636000000ED
:10012000563600000814224100141414141400411F
:1001300022140802015109063E4159555E7E090903
:10014000097E7F494949363E414141227F41414133
:100150003E7F494949417F090909013E4141493AE8
:100160007F0808087F00417F4100304040403F7FCA
:10017000081422417F404040407F020C027F7F02F2
:1001800004087F3E4141413E7F090909061E2121A5
:10019000215E7F09090976264949493201017F011B
:1001A000013F4040403F1F2040201F7F2010207F04
:1001B00041221C224107087008076151494543004C
:1001C0007F41000002040810200000417F0004026B
:1001D0000102044040404040000102040020545409
:1001E00054787F4444443838444444443844444474
:1001F0007F385454541804047E0505085454543C64
:100200007F0804047800447D40002040443D007F86
:100210001028440000417F40007C047804787C086A
:1002200004047838444444387C1414140808141422
:10023000147C007C080404485454542004043F44B3
:10024000443C4040207C1C2040201C3C4030403C32
:1002500044281028440C5050503C4464544C4400F2
:100260000836414100007F0000414136080002018C
:100270000204020011241FBECFEFD0E2DEBFCDBFCB
:1002800012E0A0E0B1E0E2EEFCE100E00BBF02C052
:1002900007900D92A633B107D9F712E0A6E3B2E0BA
:1002A00001C01D92A235B107E1F70E94D9080C9454
:1002B0006F0E0C94000093E89093B00091E090933F
:1002C000B1008093B30008959C0190933F02809306
:1002D0003E0286E390E0809300402115310589F4C9
:1002E00080EF90E090933B0280933A0280E491E0AB
:1002F00090933D0280933C0288E490E0809300411B
:100300003BC02130310589F480E491E090933B02B9
:1003100080933A0280EF90E090933D0280933C02FC
:1003200088EE90E08093004127C02230310589F4A7
:1003300080EF90E090933B0280933A0280E491E05A
:1003400090933D0280933C0288E890E080930041C6
:1003500013C02330310581F480E491E090933B0297
:1003600080933A0280EF90E090933D0280933C02AC
:1003700088E290E0809300418AE290E08093004020
:1003800020E030E0309300412093004180913A0218
:1003900090913B02019790930041809300418BE242
:1003A00090E0809300403093004120930041809181
:1003B0003C0290913D02019790930041809300414F
:1003C00008951F93682F873718F010E066E711C073
:1003D000883010F468E00CC08D3310F010E009C0D4
:1003E0008F3110F011E005C0803110F012E001C033
:1003F00013E081EB90E0809300401093004170E0A7
:10040000882777FD8095982F0E94910B9B01AC0166
:1004100060E070E080EF94E40E94B50A0E94DF087B
:1004200070E002C0759567951A95E2F760930041F8
:100430001F9108950F931F93DF93CF93CDB7DEB72E
:1004400028970FB6F894DEBF0FBECDBF29833A833D
:100450004B835C836D837E838F83988769817A81E8
:100460002B813C81ED81FE814F8158858AE290E0AD
:1004700080930040709300416093004130930041AD
:10048000209300418BE290E080930040F093004184
:10049000E093004150930041409300418CE290E092
:1004A000809300402F5F3F4F261B370B4F5F5F4FFE
:1004B0004E1B5F0B24173507C8F4842F877090E01C
:1004C000829FB001839F700D929F700D1124F3E005
:1004D00056954795FA95E1F7842F90E0829FF001B9
:1004E000839FF00D929FF00D112418C0822F87700A
:1004F00090E0849FB001859F700D949F700D112432
:10050000E3E036952795EA95E1F7822F90E0849F06
:10051000F001859FF00D949FF00D1124862F8770B8
:1005200005C0109300410093004181508823C9F712
:10053000CB0123E0969587952A95E1F78E0F9F1FB3
:1005400021C010930041009300411093004100939B
:10055000004110930041009300411093004100932B
:10056000004110930041009300411093004100931B
:10057000004110930041009300411093004100930B
:10058000004101970097E9F628960FB6F894DEBF70
:100590000FBECDBFCF91DF911F910F910895EF92C4
:1005A000FF920F931F93DF93CF93CDB7DEB72897BA
:1005B0000FB6F894DEBF0FBECDBF29833A834B83BD
:1005C0005C836D837E838F83988729813A81AB8199
:1005D000BC81ED80FE806F8178858AE290E0809317
:1005E00000403093004120930041B0930041A0931C
:1005F00000418BE290E080930040F0920041E09255
:10060000004170930041609300418CE290E0809340
:1006100000400FC0F801819191918F0190930041AA
:10062000809300414F5F5F4F6417750798F72F5F06
:100630003F4FA217B30710F0A701F6CF28960FB6C9
:10064000F894DEBF0FBECDBFCF91DF911F910F9108
:10065000FF90EF9008950F931F93DF93CF93CDB743
:10066000DEB728970FB6F894DEBF0FBECDBF10924D
:1006700041021092400210924302109242022091D5
:100680003A0230913B022150304080913C029091DF
:100690003D0201971A821982422F3C832B831E82CE
:1006A0001D8298878F83009146021091470229810D
:1006B0003A815C816D817E8198850E941A0228961C
:1006C0000FB6F894DEBF0FBECDBFCF91DF911F9163
:1006D0000F91089586E08093750080E88093740000
:1006E0003F9A249A80ED97E00197F1F7479880E4CC
:1006F0009CE90197F1F7479A80EB94E028EC30E011
:10070000F9013197F1F70197D9F788E290E08093EA
:10071000004081E190E08093004088E592E028EC81
:1007200030E0F9013197F1F70197D9F741E050E056
:100730008BEC90E0809300404093004180EC90E08F
:100740008093004088E096E29093004180930041BE
:1007500020E130E081EC90E0809300402093004164
:1007600085EC90E0809300408EE395E39093004108
:100770008093004125EB30E087EC90E080930040CF
:100780002093004186EF90E0809300404093004129
:1007900080E090E0909300418093004125E530E0B7
:1007A0008AE390E0809300402093004180E090E055
:1007B0000E9464010E942B03109241021092400299
:1007C0001092430210924202109247021092460287
:1007D0008FEF9FEF909345028093440289E290E06F
:1007E0008093004084EF91E028EC30E0F9013197EC
:1007F000F1F70197D9F780E090E025E330E020930E
:1008000000408093004180916A00806280936A007A
:100810002C9A0895CF92DF92EF92FF920F931F933D
:10082000CF93DF93982F20914002309141028901AC
:100830000C5F1F4FA0914202B091430280528F354E
:1008400008F083C0ED01279685E09802F00111249D
:10085000E850F0408BE290E080930040B09300417C
:10086000A0930041D0930041C09300419AE2C92E69
:10087000D12C8CE2E82EF12C29C0C092004030939C
:100880000041209300413093004120930041E092C9
:1008900000407491AD0161E013C0862F872329F0D9
:1008A000809144029091450204C08091460290914B
:1008B000470290930041809300414F5F5F4F660F66
:1008C000C417D50750F731962F5F3F4F0217130714
:1008D000A0F68AE290E0809300403093004120939C
:1008E000004130930041209300418CE290E08093DE
:1008F00000409D010AC0809146029091470290936A
:100900000041809300412F5F3F4FC217D30798F7F4
:10091000809140029091410206969093410280930B
:10092000400220913A0230913B028217930768F00F
:100930001092410210924002809142029091430233
:1009400008969093430280934202DF91CF911F91CA
:100950000F91FF90EF90DF90CF9008951F93CF936A
:10096000DF93EC0110E003C00E940A041F5FFE0148
:10097000E10FF11D80818823B9F7DF91CF911F919D
:1009800008951F93CF93DF93EC017093410260931E
:100990004002509343024093420210E003C00E9481
:1009A0000A041F5FFE01E10FF11D80818823B9F762
:1009B000DF91CF911F910895E1E6F0E080E8808318
:1009C000108284B980EB8EB98CE388B980EC8DBB42
:1009D00080E580936A0092E094BD83E085BD8CE75A
:1009E00087BD90936E000895A3E0B1E0EBE0F1E0E5
:1009F00088E001900D928150E1F732991BC08091FF
:100A000002018B30B8F08091020181508093020185
:100A100080910B0190910C01019790930C018093B0
:100A20000B0180910D0190910E01019790930E01A1
:100A300080930D0134991BC0809102018C3DB8F464
:100A4000809102018F5F8093020180910B01909150
:100A50000C01019690930C0180930B0180910D0184
:100A600090910E01019690930E0180930D013399A0
:100A700021C080910001909101010B97D8F08091E5
:100A80000001909101010197909301018093000171
:100A900080910F0190911001019790931001809324
:100AA0000F01809111019091120101979093120111
:100AB00080931101359922C080910001909101012C
:100AC0008C529140D8F480910001909101010196DF
:100AD000909301018093000180910F01909110018A
:100AE00001969093100180930F01809111019091D4
:100AF00012010196909312018093110180E29EE40D
:100B00000197F1F70895813041F1813038F082305A
:100B100009F442C0833009F084C061C080910201B1
:100B200090E00796909349028093480280910201D9
:100B300090E00B9690934B0280934A0280910001C3
:100B400090910101029690934D0280934C02809106
:100B500000019091010109963DC08091020190E051
:100B6000029690934902809348028091020190E09E
:100B7000099690934B0280934A02809100019091D4
:100B80000101079690934D0280934C0280910001E1
:100B9000909101010B961EC08091020190E0079692
:100BA00090934902809348028091020190E00B9655
:100BB00090934B0280934A02809100019091010131
:100BC000099690934D0280934C0280910001909180
:100BD00001010F9690934F0280934E0208958091E9
:100BE000020190E009969093490280934802809117
:100BF000020190E00F9690934B0280934A028091FD
:100C0000000190910101079690934D0280934C0250
:100C100080910001909101010B9690934F02809377
:100C20004E020895282F6799A7C08091370290E05F
:100C3000FC01B3E0EE0FFF1FBA95E1F7E80FF91FD3
:100C4000ED5EFE4F80818D3209F096C02130A9F013
:100C5000213028F02230F9F02330C1F52AC08091EC
:100C6000480290914902282F2F5F40914C025091E9
:100C70004D024350504065E529C080914802909153
:100C80004902282F235040914C0250914D024F5F52
:100C90005F4F6CE41BC08091480290914902282F5D
:100CA0002F5F40914E0250914F024D5F5F4F64E4C1
:100CB0000DC080914A0290914B02282F2D5F4091E8
:100CC0004C0250914D024F5F5F4F62E580913702B9
:100CD00090E0FC01A3E0EE0FFF1FAA95E1F7E80FFB
:100CE000F91FED5EFE4F60838091370290E030E0A7
:100CF000FC0173E0EE0FFF1F7A95E1F7E80FF91F93
:100D0000ED5EFE4F328321838091370290E0FC013B
:100D100063E0EE0FFF1F6A95E1F7E80FF91FED5E44
:100D2000FE4F348323838091370290E0FC0133E04F
:100D3000EE0FFF1F3A95E1F7E80FF91FED5EFE4F4A
:100D4000568345838091370290E0FC0123E0EE0F4B
:100D5000FF1F2A95E1F7E80FF91FED5EFE4F508760
:100D60004783809137028F5F8093370280913702EB
:100D7000833010F01092370208951F920F920FB631
:100D80000F920BB60F9211242F933F934F935F93C3
:100D90006F937F938F939F93AF93BF93EF93FF9343
:100DA000809136020E941206FF91EF91BF91AF91A0
:100DB0009F918F917F916F915F914F913F912F9173
:100DC0000F900BBE0F900FBE0F901F9018951F92A3
:100DD0000F920FB60F9211242F933F938F939F93EF
:100DE0008CB190E084FD93E085FF02C081E09827FC
:100DF00080913902891B282F332727FD309520FF4A
:100E00000FC0909339028091500290915102019746
:100E100022703070820F931F909351028093500282
:100E20009F918F913F912F910F900FBE0F901F9028
:100E30001895F8948091500290915102209150029F
:100E40003091510221703070309351022093500242
:100E5000789485950895BF92CF92DF92EF92FF929A
:100E60000F931F93DF93CF93CDB7DEB768970FB67D
:100E7000F894DEBF0FBECDBFCC24DD248DE2B82EAA
:100E8000D60103E0AA0FBB1F0A95E1F7AC0DBD1D0B
:100E9000AD5EBE4F8C918D3209F4E8C011968D91F4
:100EA0009C91129714969C938E93139715968D91FF
:100EB0009C91169718969C938E9317978C918C34CF
:100EC000E9F08D3424F4843409F072C029C08235ED
:100ED000C1F1853509F06CC015968D919C911697DE
:100EE000029716969C938E93159715968D919C91CB
:100EF00016978E5F9F4F0CF05BC033C011968D919B
:100F00009C911297029712969C938E93119711962B
:100F10008D919C9112978E5F9F4F0CF049C021C01C
:100F200015968D919C911697029616969C938E938A
:100F3000159715968D919C91169780549140C4F108
:100F400010C011968D919C911297029612969C93C7
:100F50008E93119711968D919C911297803F9105D8
:100F60003CF1BC9211964D915C91129711966D9146
:100F70007C9112971596ED91FC91169715968D918F
:100F80009C911697242F5A8349836D5F7F4F462F7C
:100F90007C836B836E2FFE83ED83039698878F830C
:100FA0003A815C817E81988500E010E00E941A02FF
:100FB000760113E0EE0CFF1C1A95E1F7EC0CFD1C1A
:100FC00083E191E0E80EF91ED70111964D915C91F5
:100FD000129711968D919C91129715966D917C9117
:100FE000169715962D913C9116975A874987039627
:100FF0009C878B877E876D872D5F3F4F388B2F8730
:1010000013964D915C91149713966D917C91149762
:101010001796ED91FC91189717968D919C911897C2
:10102000242F5A8B498B6D5F7F4F462F7C8B6B8BA8
:101030006E2FFE8BED8B0396988F8F8B3A895C8990
:101040007E89988D00E010E00E941A02F7018081ED
:101050008D3261F029853A854B855C856D857E856D
:101060008F85988900E018EF0E941A020894C11C2D
:10107000D11CF3E0CF16D10409F002CF68960FB669
:10108000F894DEBF0FBECDBFCF91DF911F910F91BE
:10109000FF90EF90DF90CF90BF9008951F920F9236
:1010A0000FB60F920BB60F9211240F931F932F932D
:1010B0003F934F935F936F937F938F939F93AF93E0
:1010C000BF93EF93FF930E94F40440913602F8948B
:1010D0002091500230915102809150029091510222
:1010E000817090709093510280935002789425956E
:1010F000240F27FF02C023E003C024300CF020E0BF
:1011000020933602809136020E94830520910301CC
:101110003091040140910501509106016091070151
:10112000709108018091090190910A0100E010E09E
:101130000E941A0220910B0130910C0140910D0187
:1011400050910E0160910F01709110018091110179
:10115000909112010FE110E00E941A020E942B07E9
:10116000209148023091490240914A0250914B022D
:1011700060914C0270914D0280914E0290914F020D
:1011800000E114E80E941A02FF91EF91BF91AF9124
:101190009F918F917F916F915F914F913F912F918F
:1011A0001F910F910F900BBE0F900FBE0F901F90CD
:1011B00018950E94DC0478940E946A03FFCFEF9296
:1011C000FF920F931F937B018C0120E030E040E001
:1011D0005FE40E94610B88238CF0C801B70120E016
:1011E00030E040E05FE40E94570A0E94EF0B9B0151
:1011F000AC01205030404040504806C0C801B70103
:101200000E94EF0B9B01AC01B901CA011F910F9124
:10121000FF90EF900895A0E0B0E0E1E1F9E00C94D8
:10122000380EDC012B01FA019C91923008F439C18F
:10123000EB018881823008F433C1943069F4843042
:1012400009F02FC111969C9111978981981709F483
:1012500028C1AEE2B1E025C1843009F421C1823059
:10126000A9F4923009F01DC19A01AD0188E0EA01AC
:101270000990AE01E90109929E018150C1F7E20196
:10128000898111969C918923818308C1923009F448
:1012900007C112962D903C901397EB018A819B8198
:1012A0001496AD90BD90CD90DC901797EC80FD80AA
:1012B0000E811F819101281B390BB90137FF04C032
:1012C00066277727621B730B603271050CF061C0D3
:1012D000121613066CF537014801062E04C09694C9
:1012E0008794779467940A94D2F721E030E040E045
:1012F00050E004C0220F331F441F551F6A95D2F7D8
:1013000021503040404050402E213F214023512366
:10131000211531054105510521F021E030E040E083
:1013200050E079018A01E628F728082919293CC0EC
:10133000232BD1F1260E371E35014601062E04C09F
:1013400096948794779467940A94D2F721E030E0DA
:1013500040E050E004C0220F331F441F551F6A9520
:10136000D2F721503040404050402A213B214C21AF
:101370005D21211531054105510521F021E030E0C5
:1013800040E050E059016A01A628B728C828D928AA
:101390000BC0821593052CF01C01AA24BB24650107
:1013A00003C0EE24FF24870111969C91D20111966F
:1013B0008C91981709F445C0992339F0A801970139
:1013C0002A193B094C095D0906C0A60195012E1991
:1013D0003F09400B510B57FD08C011823382228216
:1013E00024833583468357831DC081E08183338204
:1013F000228288279927DC01821B930BA40BB50B53
:1014000084839583A683B7830DC0220F331F441FA7
:10141000551F2483358346835783828193810197A7
:10142000938382832481358146815781DA01C90102
:101430000197A109B1098F5F9F4FAF4FBF4328F3B9
:101440000BC0918333822282EA0CFB1C0C1D1D1DF4
:10145000E482F5820683178383E0808324813581CB
:101460004681578157FF1AC0C901AA2797FDA09549
:10147000BA2F81709070A070B070569547953795CF
:101480002795822B932BA42BB52B84839583A6833E
:10149000B78382819381019693838283DF0101C0A8
:1014A000D201CD01CDB7DEB7E2E10C94540EA0E23B
:1014B000B0E0EDE5FAE00C94440E69837A838B8307
:1014C0009C832D833E834F835887E9E0EE2EF12CD9
:1014D000EC0EFD1ECE010196B7010E94670D8E0134
:1014E0000F5E1F4FCE010596B8010E94670D8A89D5
:1014F00091E089278A8BC701B801AE01475E5F4F33
:101500000E940B090E94920CA096E6E00C94600EDB
:10151000A0E2B0E0EEE8FAE00C94440E69837A832E
:101520008B839C832D833E834F835887F9E0EF2E76
:10153000F12CEC0EFD1ECE010196B7010E94670D45
:101540008E010F5E1F4FCE010596B8010E94670DF8
:10155000C701B801AE01475E5F4F0E940B090E94B0
:10156000920CA096E6E00C94600EA8E1B0E0EBEBE4
:10157000FAE00C94400E69837A838B839C832D83DD
:101580003E834F835887B9E0EB2EF12CEC0EFD1E05
:10159000CE010196B7010E94670D8E010F5E1F4FAD
:1015A000CE010596B8010E94670D2985223008F406
:1015B0007EC03989323010F4B8017CC08A859A899E
:1015C00089278A87243011F0223031F4231709F05B
:1015D0006EC06EE271E06EC0343039F41D861E8636
:1015E0001F86188A1C861B8604C0323021F484E0D2
:1015F0008987B7015FC02B853C858B899C89281B17
:10160000390B3C872B87ED84FE840F851889AD88C4
:10161000BE88CF88D88CEA14FB040C051D0540F465
:10162000EE0CFF1C001F111F215030403C872B8700
:1016300020E030E040E050E080E090E0A0E0B0E466
:1016400060E070E0EA14FB040C051D0540F0282B57
:10165000392B4A2B5B2BEA18FB080C091D09B695A0
:10166000A79597958795EE0CFF1C001F111F6F5FC4
:101670007F4F6F31710531F7DA01C9018F779070B3
:10168000A070B07080349105A105B10561F427FD0B
:101690000AC0E114F1040105110529F0205C3F4F57
:1016A0004F4F5F4F20782D873E874F87588BBE0165
:1016B000675F7F4FCB010E94920C6896EAE00C9422
:1016C0005C0EA8E1B0E0E7E6FBE00C94440E698311
:1016D0007A838B839C832D833E834F83588789E055
:1016E000E82EF12CEC0EFD1ECE010196B7010E94F2
:1016F000670D8E010F5E1F4FCE010596B8010E9447
:10170000670D8985823040F08989823028F0C701D1
:10171000B8010E94DF0D01C08FEF6896E6E00C94DF
:10172000600EA8E0B0E0E7E9FBE00C94410E9B01FD
:10173000AC0183E08983DA01C9018827B7FD83956D
:101740009927AA27BB27B82E211531054105510538
:1017500019F482E089833AC08823A9F0203080E020
:10176000380780E0480780E8580729F460E070E017
:1017700080E09FEC30C0EE24FF248701E21AF30AD8
:10178000040B150B02C079018A018EE1C82ED12C01
:10179000DC82CB82ED82FE820F831887C801B701FD
:1017A0000E94430C01971816190684F4082E04C0F1
:1017B000EE0CFF1C001F111F0A94D2F7ED82FE826F
:1017C0000F831887C81AD90ADC82CB82BA82CE016D
:1017D00001960E94920C2896E9E00C945D0EACE014
:1017E000B0E0E5EFFBE00C94480E69837A838B83CD
:1017F0009C83CE010196BE016B5F7F4F0E94670DF7
:101800008D81823061F1823050F1843021F48E81FB
:10181000882351F12EC02F81388537FD20C06E817D
:101820002F3131051CF06623F9F023C08EE190E0E2
:10183000821B930B29853A854B855C8504C05695A0
:101840004795379527958A95D2F76623B1F050953D
:101850004095309521953F4F4F4F5F4F0EC020E090
:1018600030E040E050E009C02FEF3FEF4FEF5FE77F
:1018700004C020E030E040E050E8B901CA012C96F5
:10188000E2E00C94640EEF92FF920F931F937B01A2
:101890008C0180E0E81680E0F80681E0080780E02F
:1018A000180788F48FEFE816F1040105110531F0EF
:1018B00028F088E090E0A0E0B0E017C080E090E081
:1018C000A0E0B0E012C080E0E81680E0F80680E01A
:1018D000080781E0180728F088E190E0A0E0B0E078
:1018E00004C080E190E0A0E0B0E020E230E040E021
:1018F00050E0281B390B4A0B5B0B04C0169507956B
:10190000F794E7948A95D2F7F701EA5CFE4F80815D
:10191000281B310941095109C9011F910F91FF90FD
:10192000EF900895DF92EF92FF920F931F93FC01C7
:10193000E480F58006811781D1808081823048F46F
:1019400080E090E0A0E1B0E0E82AF92A0A2B1B2B06
:10195000A5C0843009F49FC0823021F4EE24FF2416
:10196000870105C0E114F1040105110519F4E0E057
:10197000F0E096C0628173819FEF623879070CF0C6
:101980005BC022E83FEF261B370B2A3131052CF0D4
:1019900020E030E040E050E02AC0B801A701022E6C
:1019A00004C076956795579547950A94D2F781E0DC
:1019B00090E0A0E0B0E004C0880F991FAA1FBB1FF1
:1019C0002A95D2F70197A109B1098E219F21A02361
:1019D000B1230097A105B10521F081E090E0A0E0DE
:1019E000B0E09A01AB01282B392B4A2B5B2BDA0193
:1019F000C9018F779070A070B07080349105A105F7
:101A0000B10539F427FF09C0205C3F4F4F4F5F4FAE
:101A100004C0215C3F4F4F4F5F4FE0E0F0E02030CB
:101A2000A0E03A07A0E04A07A0E45A0710F0E1E07E
:101A3000F0E079018A0127C06038710564F5FB0187
:101A4000E158FF4FD801C7018F779070A070B07038
:101A500080349105A105B10539F4E7FE0DC080E49D
:101A600090E0A0E0B0E004C08FE390E0A0E0B0E040
:101A7000E80EF91E0A1F1B1F17FF05C016950795D4
:101A8000F794E794319687E016950795F794E794D5
:101A90008A95D1F705C0EE24FF248701EFEFF0E02F
:101AA0006E2F679566276795902F9F77D794DD24D3
:101AB000D7948E2F8695492F462B582F5D29B70135
:101AC000CA011F910F91FF90EF90DF900895FC01E4
:101AD000DB01408151812281622F6F7770E0221FEC
:101AE0002227221F9381892F880F822B282F30E0F5
:101AF000991F9927991F11969C93119721153105CC
:101B0000A9F5411551056105710511F482E037C051
:101B100082E89FEF13969C938E9312979A01AB01E4
:101B200067E0220F331F441F551F6A95D1F783E0EA
:101B30008C930DC0220F331F441F551F12968D9199
:101B40009C911397019713969C938E931297203034
:101B500080E0380780E0480780E4580758F314967F
:101B60002D933D934D935C93179708952F3F310527
:101B700079F4411551056105710519F484E08C93E0
:101B8000089564FF03C081E08C9312C01C9210C0C2
:101B90002F57304013963C932E93129783E08C93EB
:101BA00087E0440F551F661F771F8A95D1F7706431
:101BB00014964D935D936D937C93179708951F939F
:101BC000DC01FB019C91923008F447C08081823097
:101BD00008F443C0943051F411961C91843099F567
:101BE0008181682F70E0611B71093FC0843021F052
:101BF000923031F48230B9F18181882389F12DC08E
:101C000011961C9111978230F1F081811817D9F447
:101C100012962D913C91139782819381821793079D
:101C200094F028173907BCF014968D919D910D9072
:101C3000BC91A02D24813581468157812817390711
:101C40004A075B0718F4112341F00AC08217930773
:101C5000A407B50740F4112319F061E070E005C056
:101C60006FEF7FEF02C060E070E0CB011F9108953D
:101C70002F923F924F925F926F927F928F929F929C
:101C8000AF92BF92CF92DF92EF92FF920F931F938A
:101C9000CF93DF93CDB7DEB7CA1BDB0B0FB6F8943B
:101CA000DEBF0FBECDBF09942A88398848885F847B
:101CB0006E847D848C849B84AA84B984C884DF80EC
:101CC000EE80FD800C811B81AA81B981CE0FD11DD0
:101CD0000FB6F894DEBF0FBECDBFED010895F894A6
:021CE000FFCF34
:101CE200960064640075009600A700640075009673
:101CF20000A7002D00000000000000002D000000E1
:101D020000000000002D00000000000000000000A4
:101D120000000000000000010202030303030404A8
:101D22000404040404040505050505050505050567
:101D32000505050505050606060606060606060647
:101D42000606060606060606060606060606060631
:101D52000606060606060707070707070707070717
:101D62000707070707070707070707070707070701
:101D720007070707070707070707070707070707F1
:101D820007070707070707070707070707070707E1
:101D920007070707070708080808080808080808C7
:101DA20008080808080808080808080808080808B1
:101DB20008080808080808080808080808080808A1
:101DC2000808080808080808080808080808080891
:101DD2000808080808080808080808080808080881
:101DE2000808080808080808080808080808080871
:101DF2000808080808080808080808080808080861
:101E02000808080808080808080808080808080850
:061E12000808080808089A
:00000001FF
