:100000000C943A010C9459010C9459010C94590127
:100010000C9459010C9459010C9459010C94DC0C6A
:100020000C9422060C9459010C9459010C9459011A
:100030000C9459010C9459010C9459010C945901D8
:100040000C9459010C9459010C9459010C945901C8
:100050000C9459010C944C060C9459010C945901C0
:100060000C9459010C9459010C9459010C945901A8
:100070000C9459010C9459010C9459010C94590198
:100080000C9459010C9459010C9459010C94590188
:100090000C9459010C945901000000000000005F0D
:1000A00000000003000300143E143E14242A7F2A9B
:1000B000124333086661364955225000050300009B
:1000C000001C2241000041221C0014083E081408B4
:1000D000083E0808005030000008080808080060C2
:1000E00060000020100804023E5149453E00040211
:1000F0007F00426151494622414949361814127F16
:100100001027454545393E494949320101710907E2
:100110003649494936264949493E003636000000ED
:10012000563600000814224100141414141400411F
:1001300022140802015109063E4159555E7E090903
:10014000097E7F494949363E414141227F41414133
:100150003E7F494949417F090909013E4141493AE8
:100160007F0808087F00417F4100304040403F7FCA
:10017000081422417F404040407F020C027F7F02F2
:1001800004087F3E4141413E7F090909061E2121A5
:10019000215E7F09090976264949493201017F011B
:1001A000013F4040403F1F2040201F7F2010207F04
:1001B00041221C224107087008076151494543004C
:1001C0007F41000002040810200000417F0004026B
:1001D0000102044040404040000102040020545409
:1001E00054787F4444443838444444443844444474
:1001F0007F385454541804047E0505085454543C64
:100200007F0804047800447D40002040443D007F86
:100210001028440000417F40007C047804787C086A
:1002200004047838444444387C1414140808141422
:10023000147C007C080404485454542004043F44B3
:10024000443C4040207C1C2040201C3C4030403C32
:1002500044281028440C5050503C4464544C4400F2
:100260000836414100007F0000414136080002018C
:100270000204020011241FBECFEFD0E2DEBFCDBFCB
:1002800012E0A0E0B1E0ECE6FDE200E00BBF02C04E
:1002900007900D92A638B107D9F712E0A6E8B2E0B0
:1002A00001C01D92AC3AB107E1F70E94AA0C0C9470
:1002B000B4160C94000093E89093B00091E09093F2
:1002C000B1008093B30008959C01909391028093B4
:1002D000900286E390E0809300402115310589F477
:1002E00080EF90E090938D0280938C0280E491E007
:1002F00090938F0280938E0288E490E08093004177
:100300003BC02130310589F480E491E090938D0267
:1003100080938C0280EF90E090938F0280938E0206
:1003200088EE90E08093004127C02230310589F4A7
:1003300080EF90E090938D0280938C0280E491E0B6
:1003400090938F0280938E0288E890E08093004122
:1003500013C02330310581F480E491E090938D0245
:1003600080938C0280EF90E090938F0280938E02B6
:1003700088E290E0809300418AE290E08093004020
:1003800020E030E0309300412093004180918C02C6
:1003900090918D02019790930041809300418BE2F0
:1003A00090E0809300403093004120930041809181
:1003B0008E0290918F0201979093004180930041AB
:1003C00008951F93682F873718F010E066E711C073
:1003D000883010F468E00CC08D3310F010E009C0D4
:1003E0008F3110F011E005C0803110F012E001C033
:1003F00013E081EB90E0809300401093004170E0A7
:10040000882777FD8095982F0E9411109B01AC01E1
:1004100060E070E080EF94E40E94350F0E945F0D71
:1004200070E002C0759567951A95E2F760930041F8
:100430001F9108950F931F93DF93CF93CDB7DEB72E
:1004400028970FB6F894DEBF0FBECDBF29833A833D
:100450004B835C836D837E838F83988769817A81E8
:100460002B813C81ED81FE814F8158858AE290E0AD
:1004700080930040709300416093004130930041AD
:10048000209300418BE290E080930040F093004184
:10049000E093004150930041409300418CE290E092
:1004A000809300402F5F3F4F261B370B4F5F5F4FFE
:1004B0004E1B5F0B24173507C8F4842F877090E01C
:1004C000829FB001839F700D929F700D1124F3E005
:1004D00056954795FA95E1F7842F90E0829FF001B9
:1004E000839FF00D929FF00D112418C0822F87700A
:1004F00090E0849FB001859F700D949F700D112432
:10050000E3E036952795EA95E1F7822F90E0849F06
:10051000F001859FF00D949FF00D1124862F8770B8
:1005200005C0109300410093004181508823C9F712
:10053000CB0123E0969587952A95E1F78E0F9F1FB3
:1005400021C010930041009300411093004100939B
:10055000004110930041009300411093004100932B
:10056000004110930041009300411093004100931B
:10057000004110930041009300411093004100930B
:10058000004101970097E9F628960FB6F894DEBF70
:100590000FBECDBFCF91DF911F910F910895EF92C4
:1005A000FF920F931F93DF93CF93CDB7DEB72897BA
:1005B0000FB6F894DEBF0FBECDBF29833A834B83BD
:1005C0005C836D837E838F83988729813A81AB8199
:1005D000BC81ED80FE806F8178858AE290E0809317
:1005E00000403093004120930041B0930041A0931C
:1005F00000418BE290E080930040F0920041E09255
:10060000004170930041609300418CE290E0809340
:1006100000400FC0F801819191918F0190930041AA
:10062000809300414F5F5F4F6417750798F72F5F06
:100630003F4FA217B30710F0A701F6CF28960FB6C9
:10064000F894DEBF0FBECDBFCF91DF911F910F9108
:10065000FF90EF9008950F931F93DF93CF93CDB743
:10066000DEB728970FB6F894DEBF0FBECDBF10924D
:10067000930210929202109295021092940220918D
:100680008C0230918D022150304080918E029091E9
:100690008F0201971A821982422F3C832B831E827C
:1006A0001D8298878F830091980210919902298169
:1006B0003A815C816D817E8198850E941A0228961C
:1006C0000FB6F894DEBF0FBECDBFCF91DF911F9163
:1006D0000F91089586E08093750080E88093740000
:1006E0003F9A249A80ED97E00197F1F7479880E4CC
:1006F0009CE90197F1F7479A80EB94E028EC30E011
:10070000F9013197F1F70197D9F788E290E08093EA
:10071000004081E190E08093004088E592E028EC81
:1007200030E0F9013197F1F70197D9F741E050E056
:100730008BEC90E0809300404093004180EC90E08F
:100740008093004088E096E29093004180930041BE
:1007500020E130E081EC90E0809300402093004164
:1007600085EC90E0809300408EE395E39093004108
:100770008093004125EB30E087EC90E080930040CF
:100780002093004186EF90E0809300404093004129
:1007900080E090E0909300418093004125E530E0B7
:1007A0008AE390E0809300402093004180E090E055
:1007B0000E9464010E942B031092930210929202F5
:1007C000109295021092940210929902109298023F
:1007D0008FEF9FEF909397028093960289E290E0CB
:1007E0008093004084EF91E028EC30E0F9013197EC
:1007F000F1F70197D9F780E090E025E330E020930E
:1008000000408093004180916A00806280936A007A
:100810002C9A0895CF92DF92EF92FF920F931F933D
:10082000CF93DF93982F2091920230919302890108
:100830000C5F1F4FA0919402B091950280528F35AA
:1008400008F083C0ED01279685E09802F00111249D
:10085000E850F0408BE290E080930040B09300417C
:10086000A0930041D0930041C09300419AE2C92E69
:10087000D12C8CE2E82EF12C29C0C092004030939C
:100880000041209300413093004120930041E092C9
:1008900000407491AD0161E013C0862F872329F0D9
:1008A000809196029091970204C080919802909155
:1008B000990290930041809300414F5F5F4F660F14
:1008C000C417D50750F731962F5F3F4F0217130714
:1008D000A0F68AE290E0809300403093004120939C
:1008E000004130930041209300418CE290E08093DE
:1008F00000409D010AC080919802909199029093C6
:100900000041809300412F5F3F4FC217D30798F7F4
:100910008091920290919302069690939302809315
:10092000920220918C0230918D028217930768F019
:1009300010929302109292028091940290919502EB
:1009400008969093950280939402DF91CF911F9126
:100950000F91FF90EF90DF90CF9008951F93CF936A
:10096000DF93EC0110E003C00E940A041F5FFE0148
:10097000E10FF11D80818823B9F7DF91CF911F919D
:1009800008951F93CF93DF93EC01709393026093CC
:100990009202509395024093940210E003C00E948B
:1009A0000A041F5FFE01E10FF11D80818823B9F762
:1009B000DF91CF911F910895E1E6F0E080E8808318
:1009C000108284B980EB8EB98CE388B980EC8DBB42
:1009D00080E580936A0092E094BD83E085BD8CE75A
:1009E00087BD90936E000895813049F1813030F0D9
:1009F0008230A1F1833009F076C051C080913E0170
:100A000090913F01079690939B0280939A02809168
:100A10003E0190913F010B9690939D0280939C0222
:100A200080913C0190913D01029690939F028093AA
:100A30009E0280913C0190913D01099650C08091A9
:100A40003E0190913F01029690939B0280939A02FF
:100A500080913E0190913F0109962FC080913E0107
:100A600090913F01079690939B0280939A02809108
:100A70003E0190913F010B9690939D0280939C02C2
:100A800080913C0190913D01099690939F02809343
:100A90009E0280913C0190913D010F9620C0809173
:100AA0003E0190913F01099690939B0280939A0298
:100AB00080913E0190913F010F9690939D0280930B
:100AC0009C0280913C0190913D01079690939F027A
:100AD00080939E0280913C0190913D010B969093F2
:100AE000A1028093A00281E080935B010895282FEA
:100AF0006799A7C08091870290E0FC01B3E0EE0FF8
:100B0000FF1FBA95E1F7E80FF91FE05CFE4F808107
:100B10008D3209F096C02130A9F0213028F0223022
:100B2000F9F02330C1F52AC080919A0290919B027E
:100B3000282F2F5F40919E0250919F0243505040BA
:100B400065E529C080919A0290919B02282F23503D
:100B500040919E0250919F024F5F5F4F6CE41BC01B
:100B600080919A0290919B02282F2F5F4091A002C2
:100B70005091A1024D5F5F4F64E40DC080919C02D3
:100B800090919D02282F2D5F40919E0250919F02CF
:100B90004F5F5F4F62E58091870290E0FC01A3E028
:100BA000EE0FFF1FAA95E1F7E80FF91FE05CFE4F7B
:100BB00060838091870290E030E0FC0173E0EE0FEB
:100BC000FF1F7A95E1F7E80FF91FE05CFE4F3283D3
:100BD00021838091870290E0FC0163E0EE0FFF1F0C
:100BE0006A95E1F7E80FF91FE05CFE4F3483238339
:100BF0008091870290E0FC0133E0EE0FFF1F3A95F1
:100C0000E1F7E80FF91FE05CFE4F568345838091C2
:100C1000870290E0FC0123E0EE0FFF1F2A95E1F729
:100C2000E80FF91FE05CFE4F5087478380918702F1
:100C30008F5F8093870280918702833010F010923B
:100C4000870208951F920F920FB60F920BB60F9264
:100C500011242F933F934F935F936F937F938F93C1
:100C60009F93AF93BF93EF93FF93809186020E946F
:100C70007705FF91EF91BF91AF919F918F917F91F8
:100C80006F915F914F913F912F910F900BBE0F90FD
:100C90000FBE0F901F9018951F920F920FB60F92D4
:100CA00011242F933F938F939F938CB190E084FDF9
:100CB00093E085FF02C081E0982780918B02891B19
:100CC000282F332727FD309520FF0FC090938B02EC
:100CD0008091AA029091AB02019722703070820F2E
:100CE000931F9093AB028093AA029F918F913F91A3
:100CF0002F910F900FBE0F901F901895F894809130
:100D0000AA029091AB022091AA023091AB0221700D
:100D100030703093AB022093AA02789485950895A1
:100D20003F924F925F926F927F928F929F92AF927B
:100D3000BF92CF92DF92EF92FF920F931F93DF93B8
:100D4000CF93CDB7DEB768970FB6F894DEBF0FBE6E
:100D5000CDBFAA24BB241DE2312EF501B3E0EE0F76
:100D6000FF1FBA95E1F7EA0DFB1DE25AFE4F8081A5
:100D70008D3209F49BC120913E0130913F01818168
:100D800092818217930750F080913E0190913F012C
:100D90002181328141968217930710F520913E01FF
:100DA00030913F01F501A3E0EE0FFF1FAA95E1F797
:100DB000EA0DFB1DE25AFE4F818192810B9682174C
:100DC000930708F47EC020913E0130913F0181815C
:100DD00092812F5E3F4F0B962817390708F471C098
:100DE00020913C0130913D01F50173E0EE0FFF1FB2
:100DF0007A95E1F7EA0DFB1DE25AFE4F8581968157
:100E00008217930750F080913C0190913D0125811C
:100E1000368141968217930708F520913C01309165
:100E20003D01F50163E0EE0FFF1F6A95E1F7EA0D62
:100E3000FB1DE25AFE4F858196810B968217930720
:100E400008F43FC020913C0130913D01858196819D
:100E50002F5E3F4F0B962817390798F1F50153E0A5
:100E6000EE0FFF1F5A95E1F7EA0DFB1DE25AFE4F08
:100E7000308280915C01815080935C01418152817C
:100E800061817281A581B68185819681242F5A83E3
:100E90004983655F7F4F462F7C836B836A2FBE83B8
:100EA000AD830B9698878F833A815C817E8198858C
:100EB00000E010E00E941A0280918A028150809323
:100EC0008A02CC24DD24450143E0880C991C4A9514
:100ED000E1F78A0C9B1C8EE591E0880E991E240197
:100EE0000894411C511C35E0632E712C680C791C50
:100EF000F60123E0EE0FFF1F2A95E1F7EC0DFD1D33
:100F0000E05CFE4F80818D3209F4C8C0D2012D9182
:100F10003C911197818192818217930744F08D91C2
:100F20009C91218132810B9682179307F4F4F20190
:100F300020813181F60193E0EE0FFF1F9A95E1F7D2
:100F4000EC0DFD1DE05CFE4F8181928103968217BE
:100F500093070CF4A3C0D2012D913C918181928121
:100F60000897281739070CF499C0F30120813181C3
:100F7000F60183E0EE0FFF1F8A95E1F7EC0DFD1DF2
:100F8000E05CFE4F85819681821793074CF0D30178
:100F90008D919C91258136810B9682179307F4F4ED
:100FA000F30120813181F60103E0EE0FFF1F0A9566
:100FB000E1F7EC0DFD1DE05CFE4F85819681039607
:100FC000821793070CF46AC0D3012D913C9185815F
:100FD00096810897281739070CF460C0F401308215
:100FE000760113E0EE0CFF1C1A95E1F7EC0CFD1CEA
:100FF00080E491E0E80EF91ED7013C9280918802CE
:10100000909189020A969093890280938802F20156
:101010004081518160817181D301ED91FC911197E3
:101020008D919C91242F5A874987655F7F4F462F6A
:101030007C876B876E2FFE87ED870B96988B8F874B
:101040003A855C857E85988900E010E00E941A024E
:10105000F70141815281618172810580F681E02D25
:10106000D70115968D919C911697242F5A8B498BF9
:101070006D5F7F4F462F7C8B6B8B6E2FFE8BED8BC6
:101080000396988F8F8B3A895C897E89988D0E9410
:101090001A0280918A02815080938A020894C11CAE
:1010A000D11CB3E0CB16D10409F022CF0894A11CC7
:1010B000B11CE3E0AE16B10409F04FCE68960FB64E
:1010C000F894DEBF0FBECDBFCF91DF911F910F917E
:1010D000FF90EF90DF90CF90BF90AF909F908F9058
:1010E0007F906F905F904F903F900895BF92CF9206
:1010F000DF92EF92FF920F931F93DF93CF93CDB7C1
:10110000DEB768970FB6F894DEBF0FBECDBFCC2414
:10111000DD242DE2B22ED60193E0AA0FBB1F9A95D3
:10112000E1F7AC0DBD1DA25ABE4F8C918D3209F472
:101130003CC111968D919C91129714969C938E931D
:10114000139715968D919C91169718969C938E9354
:1011500017978C918C34F9F08D3434F4843469F120
:10116000863409F0C4C079C08235C9F1853509F0EB
:10117000BEC015968D919C911697029716969C93DA
:101180008E93159715968D919C911697865F9F4F1C
:101190000CF0ADC035C011968D919C9112970297BD
:1011A00012969C938E93119711968D919C91129704
:1011B000865F9F4F0CF09BC023C015968D919C912C
:1011C0001697029616969C938E93159715968D9169
:1011D0009C911697805491400CF489C011C01196CF
:1011E0008D919C911297029612969C938E931197D3
:1011F00011968D919C911297803F91050CF477C0C8
:10120000BC9211964D915C91129711966D917C91C3
:1012100012971596ED91FC91169715968D919C91CC
:101220001697242F5A834983655F7F4F462F7C830F
:101230006B836E2FFE83ED830B9698878F833A81A5
:101240005C817E81988500E010E00E941A02809106
:101250008A02815080938A024AC011962D913C9156
:10126000129780913E0190913F018217930730F4CD
:1012700011968D919C911297019710C011962D9106
:101280003C91129780913E0190913F0128173907B8
:1012900048F411968D919C911297019612969C9309
:1012A0008E931197F60183E0EE0FFF1F8A95E1F709
:1012B000EC0DFD1DE25AFE4F2581368180913C01E7
:1012C00090913D018217930720F4858196810197C3
:1012D0000CC02581368180913C0190913D012817F9
:1012E000390728F485819681019696838583760156
:1012F00003E0EE0CFF1C0A95E1F7EC0CFD1C8EE5FB
:1013000091E0E80EF91ED70111964D915C9112976C
:1013100011968D919C91129715966D917C911697CF
:1013200015962D913C9116975A8749870B969C8765
:101330008B877E876D87255F3F4F388B2F8713966E
:101340004D915C91149713966D917C91149717961B
:10135000ED91FC91189717968D919C911897242FD9
:101360005A8B498B655F7F4F462F7C8B6B8B6E2F23
:10137000FE8BED8B0B96988F8F8B3A895C897E89DB
:10138000988D00E010E00E941A02F70180818D32F2
:1013900061F029853A854B855C856D857E858F85D5
:1013A00098890FEF1FEF0E941A020894C11CD11CEC
:1013B000F3E0CF16D10409F0AECE68960FB6F894DC
:1013C000DEBF0FBECDBFCF91DF911F910F91FF9078
:1013D000EF90DF90CF90BF900895BF92CF92DF92B1
:1013E000EF92FF920F931F93DF93CF93CDB7DEB7AA
:1013F00068970FB6F894DEBF0FBECDBFCC24DD24B6
:101400005DE2B52ED60143E0AA0FBB1F4A95E1F776
:10141000AC0DBD1DA05CBE4F8C918D3209F4EAC0AD
:1014200011968D919C91129714969C938E9313977D
:1014300015968D919C91169718969C938E9317975D
:101440008C918C34E9F08D3424F4843409F072C02A
:1014500029C08235C1F1853509F06CC015968D9192
:101460009C911697029716969C938E9315971596B6
:101470008D919C9116978E5F9F4F0CF05BC033C08F
:1014800011968D919C911297029712969C938E9330
:10149000119711968D919C9112978E5F9F4F0CF032
:1014A00049C021C015968D919C911697029616966B
:1014B0009C938E93159715968D919C9116978054B9
:1014C0009140C4F110C011968D919C911297029693
:1014D00012969C938E93119711968D919C911297D1
:1014E000803F91053CF1BC9211964D915C91129711
:1014F00011966D917C9112971596ED91FC9116972E
:1015000015968D919C911697242F5A8349836D5F70
:101510007F4F462F7C836B836E2FFE83ED83039674
:1015200098878F833A815C817E81988500E010E006
:101530000E941A02760133E0EE0CFF1C3A95E1F7A7
:10154000EC0CFD1C80E491E0E80EF91ED701119629
:101550004D915C91129711968D919C9112971596D1
:101560006D917C91169715962D913C9116975A87FF
:10157000498703969C878B877E876D872D5F3F4FBA
:10158000388B2F8713964D915C91149713966D911C
:101590007C9114971796ED91FC91189717968D9161
:1015A0009C911897242F5A8B498B6D5F7F4F462F44
:1015B0007C8B6B8B6E2FFE8BED8B0396988F8F8BB6
:1015C0003A895C897E89988D00E010E00E941A02B9
:1015D000F70180818D3271F0009136011091370151
:1015E00029853A854B855C856D857E858F859889B3
:1015F0000E941A020894C11CD11CF3E0CF16D1043A
:1016000009F000CF68960FB6F894DEBF0FBECDBFCD
:10161000CF91DF911F910F91FF90EF90DF90CF90CE
:10162000BF900895EF92FF920F931F93DF93CF9394
:10163000CDB7DEB760970FB6F894DEBF0FBECDBF53
:1016400000913E0110913F01E0903C01F0903D017E
:10165000329912C080913E0190913F010B9760F04A
:1016600080913E0190913F01019790933F018093BB
:101670003E0181E080935B01349913C080913E016B
:1016800090913F01823D910560F480913E019091DF
:101690003F01019690933F0180933E0181E080934A
:1016A0005B01339912C080913C0190913D010B97F1
:1016B00060F080913C0190913D01019790933D0134
:1016C00080933C0181E080935B01359913C0809148
:1016D0003C0190913D018252914060F480913C0127
:1016E00090913D01019690933D0180933C0181E0F2
:1016F00080935B01809186020E94F40480915B01DB
:10170000882309F457C0202F1A830983C801419602
:10171000482F9C838B836E2DFE82ED82C7014196FC
:1017200098878F833A815C817E81988500E010E004
:101730000E941A0240913E0150913F0160913E018A
:1017400070913F01E0913C01F0913D0180913C019D
:1017500090913D01242F5A8749876F5E7F4F462F16
:101760007C876B876E2FFE87ED874196988B8F87DE
:1017700000913801109139013A855C857E85988900
:101780000E941A0200913A0110913B0120919A02A5
:1017900030919B0240919C0250919D0260919E026B
:1017A00070919F028091A0029091A1020E941A0262
:1017B00010925B0180E29EE40197F1F760960FB60C
:1017C000F894DEBF0FBECDBFCF91DF911F910F9177
:1017D000FF90EF900895EF92FF920F931F93CF9396
:1017E000DF9380918A02833008F0ADC0EE24FF249D
:1017F000F70173E0EE0FFF1F7A95E1F7EE0DFF1D85
:10180000E25AFE4F80818D3209F095C00E9471131B
:1018100065E070E00E94B812823011F1833030F43C
:10182000882351F0813009F06CC010C0833011F171
:10183000843009F066C028C00E94711368E171E02D
:101840000E94B812EC012A9612E537C00E9471136B
:1018500068E171E00E94B812EC012A961CE438C0DD
:101860000E94711362ED70E00E94B812082F065FAB
:1018700015E539C00E94711362ED70E00E94B81244
:10188000082F065F14E43BC00E94711364E070E00F
:101890000E94B812813099F0813030F08230D1F05E
:1018A000833021F116E42DC00E94711368E171E0CC
:1018B0000E94B812EC012A9616E400E022C00E94B1
:1018C000711368E171E00E94B812EC012A9616E4E7
:1018D00006EE17C00E94711362ED70E00E94B8120C
:1018E000082F065F16E4C2E2D1E00BC00E9471131C
:1018F00062ED70E00E94B812082F065F16E4C0E0A7
:10190000D0E0F70163E0EE0FFF1F6A95E1F7EE0DFF
:10191000FF1DE25AFE4F1083802F90E09283818357
:1019200094838383D683C583D087C78380918A02BB
:101930008F5F80938A020894E11CF11C84E0E81612
:10194000F10409F055CFDF91CF911F910F91FF90D6
:10195000EF9008950E94DC040E946A0380E091E009
:101960000E94AE0481E191E068E270E040EA50E05C
:101970000E94C1046799FECF86B590E00E9476135D
:101980000E942B0388E893E128EC30E0F9013197BD
:10199000F1F70197D9F7789480915C018823E1F7FA
:1019A000F8940E942B0388E291E068E270E040EA3C
:1019B00050E00E94C10408951F920F920FB60F923B
:1019C0000BB60F9211240F931F932F933F934F93B6
:1019D0005F936F937F938F939F93AF93BF93EF9397
:1019E000FF9340918602F8942091AA023091AB02B5
:1019F0008091AA029091AB02817090709093AB029B
:101A00008093AA0278942595240F27FF02C023E033
:101A100003C024300CF020E0209386020E94120BB9
:101A20000E94ED0980915D01882311F0815005C06D
:101A30000E94EB0B0E94760884E080935D010E9477
:101A40009006209188023091890200D000D000D009
:101A5000EDB7FEB7319602EA12E0ADB7BEB7129607
:101A60001C930E93119782E391E0938382833583D5
:101A700024830E9481138DB79EB706960FB6F89403
:101A80009EBF0FBE8DBFC8016AE070E04CE251E01E
:101A90000E94C104FF91EF91BF91AF919F918F91EF
:101AA0007F916F915F914F913F912F911F910F9176
:101AB0000F900BBE0F900FBE0F901F901895EF92D6
:101AC000FF920F931F937B018C0120E030E040E0F8
:101AD0005FE40E94E10F88238CF0C801B70120E089
:101AE00030E040E05FE40E94D70E0E946F109B013F
:101AF000AC01205030404040504806C0C801B701FA
:101B00000E946F109B01AC01B901CA011F910F9196
:101B1000FF90EF900895A0E0B0E0E1E9FDE00C94C3
:101B2000DF12DC012B01FA019C91923008F439C1DB
:101B3000EB018881823008F433C1943069F4843039
:101B400009F02FC111969C9111978981981709F47A
:101B500028C1A9E7B1E025C1843009F421C1823050
:101B6000A9F4923009F01DC19A01AD0188E0EA01A3
:101B70000990AE01E90109929E018150C1F7E2018D
:101B8000898111969C918923818308C1923009F43F
:101B900007C112962D903C901397EB018A819B818F
:101BA0001496AD90BD90CD90DC901797EC80FD80A1
:101BB0000E811F819101281B390BB90137FF04C029
:101BC00066277727621B730B603271050CF061C0CA
:101BD000121613066CF537014801062E04C09694C0
:101BE0008794779467940A94D2F721E030E040E03C
:101BF00050E004C0220F331F441F551F6A95D2F7CF
:101C000021503040404050402E213F21402351235D
:101C1000211531054105510521F021E030E040E07A
:101C200050E079018A01E628F728082919293CC0E3
:101C3000232BD1F1260E371E35014601062E04C096
:101C400096948794779467940A94D2F721E030E0D1
:101C500040E050E004C0220F331F441F551F6A9517
:101C6000D2F721503040404050402A213B214C21A6
:101C70005D21211531054105510521F021E030E0BC
:101C800040E050E059016A01A628B728C828D928A1
:101C90000BC0821593052CF01C01AA24BB246501FE
:101CA00003C0EE24FF24870111969C91D201119666
:101CB0008C91981709F445C0992339F0A801970130
:101CC0002A193B094C095D0906C0A60195012E1988
:101CD0003F09400B510B57FD08C01182338222820D
:101CE00024833583468357831DC081E081833382FB
:101CF000228288279927DC01821B930BA40BB50B4A
:101D000084839583A683B7830DC0220F331F441F9E
:101D1000551F24833583468357838281938101979E
:101D2000938382832481358146815781DA01C901F9
:101D30000197A109B1098F5F9F4FAF4FBF4328F3B0
:101D40000BC0918333822282EA0CFB1C0C1D1D1DEB
:101D5000E482F5820683178383E0808324813581C2
:101D60004681578157FF1AC0C901AA2797FDA09540
:101D7000BA2F81709070A070B070569547953795C6
:101D80002795822B932BA42BB52B84839583A68335
:101D9000B78382819381019693838283DF0101C09F
:101DA000D201CD01CDB7DEB7E2E10C94FB12A0E287
:101DB000B0E0EDEDFEE00C94EB1269837A838B8347
:101DC0009C832D833E834F835887E9E0EE2EF12CD0
:101DD000EC0EFD1ECE010196B7010E94E7118E01A7
:101DE0000F5E1F4FCE010596B8010E94E7118A8948
:101DF00091E089278A8BC701B801AE01475E5F4F2A
:101E00000E948B0D0E941211A096E6E00C9407131D
:101E1000A0E2B0E0EEE0FFE00C94EB1269837A837D
:101E20008B839C832D833E834F835887F9E0EF2E6D
:101E3000F12CEC0EFD1ECE010196B7010E94E711B8
:101E40008E010F5E1F4FCE010596B8010E94E7116B
:101E5000C701B801AE01475E5F4F0E948B0D0E9423
:101E60001211A096E6E00C940713A8E1B0E0EBE3B2
:101E7000FFE00C94E71269837A838B839C832D8324
:101E80003E834F835887B9E0EB2EF12CEC0EFD1EFC
:101E9000CE010196B7010E94E7118E010F5E1F4F20
:101EA000CE010596B8010E94E7112985223008F479
:101EB0007EC03989323010F4B8017CC08A859A8995
:101EC00089278A87243011F0223031F4231709F052
:101ED0006EC069E771E06EC0343039F41D861E862D
:101EE0001F86188A1C861B8604C0323021F484E0C9
:101EF0008987B7015FC02B853C858B899C89281B0E
:101F0000390B3C872B87ED84FE840F851889AD88BB
:101F1000BE88CF88D88CEA14FB040C051D0540F45C
:101F2000EE0CFF1C001F111F215030403C872B87F7
:101F300020E030E040E050E080E090E0A0E0B0E45D
:101F400060E070E0EA14FB040C051D0540F0282B4E
:101F5000392B4A2B5B2BEA18FB080C091D09B69597
:101F6000A79597958795EE0CFF1C001F111F6F5FBB
:101F70007F4F6F31710531F7DA01C9018F779070AA
:101F8000A070B07080349105A105B10561F427FD02
:101F90000AC0E114F1040105110529F0205C3F4F4E
:101FA0004F4F5F4F20782D873E874F87588BBE015C
:101FB000675F7F4FCB010E9412116896EAE00C9494
:101FC0000313A8E1B0E0E7EEFFE00C94EB126983A5
:101FD0007A838B839C832D833E834F83588789E04C
:101FE000E82EF12CEC0EFD1ECE010196B7010E94E9
:101FF000E7118E010F5E1F4FCE010596B8010E94BA
:10200000E7118985823040F08989823028F0C70144
:10201000B8010E945F1201C08FEF6896E6E00C9451
:102020000713A8E0B0E0E7E1F0E10C94E8129B01AF
:10203000AC0183E08983DA01C9018827B7FD839564
:102040009927AA27BB27B82E21153105410551052F
:1020500019F482E089833AC08823A9F0203080E017
:10206000380780E0480780E8580729F460E070E00E
:1020700080E09FEC30C0EE24FF248701E21AF30ACF
:10208000040B150B02C079018A018EE1C82ED12CF8
:10209000DC82CB82ED82FE820F831887C801B701F4
:1020A0000E94C31001971816190684F4082E04C064
:1020B000EE0CFF1C001F111F0A94D2F7ED82FE8266
:1020C0000F831887C81AD90ADC82CB82BA82CE0164
:1020D00001960E9412112896E9E00C940413ACE0DA
:1020E000B0E0E5E7F0E10C94EF1269837A838B832B
:1020F0009C83CE010196BE016B5F7F4F0E94E7116A
:102100008D81823061F1823050F1843021F48E81F2
:10211000882351F12EC02F81388537FD20C06E8174
:102120002F3131051CF06623F9F023C08EE190E0D9
:10213000821B930B29853A854B855C8504C0569597
:102140004795379527958A95D2F76623B1F0509534
:102150004095309521953F4F4F4F5F4F0EC020E087
:1021600030E040E050E009C02FEF3FEF4FEF5FE776
:1021700004C020E030E040E050E8B901CA012C96EC
:10218000E2E00C940B13EF92FF920F931F937B01ED
:102190008C0180E0E81680E0F80681E0080780E026
:1021A000180788F48FEFE816F1040105110531F0E6
:1021B00028F088E090E0A0E0B0E017C080E090E078
:1021C000A0E0B0E012C080E0E81680E0F80680E011
:1021D000080781E0180728F088E190E0A0E0B0E06F
:1021E00004C080E190E0A0E0B0E020E230E040E018
:1021F00050E0281B390B4A0B5B0B04C01695079562
:10220000F794E7948A95D2F7F701EF57FE4F808154
:10221000281B310941095109C9011F910F91FF90F4
:10222000EF900895DF92EF92FF920F931F93FC01BE
:10223000E480F58006811781D1808081823048F466
:1022400080E090E0A0E1B0E0E82AF92A0A2B1B2BFD
:10225000A5C0843009F49FC0823021F4EE24FF240D
:10226000870105C0E114F1040105110519F4E0E04E
:10227000F0E096C0628173819FEF623879070CF0BD
:102280005BC022E83FEF261B370B2A3131052CF0CB
:1022900020E030E040E050E02AC0B801A701022E63
:1022A00004C076956795579547950A94D2F781E0D3
:1022B00090E0A0E0B0E004C0880F991FAA1FBB1FE8
:1022C0002A95D2F70197A109B1098E219F21A02358
:1022D000B1230097A105B10521F081E090E0A0E0D5
:1022E000B0E09A01AB01282B392B4A2B5B2BDA018A
:1022F000C9018F779070A070B07080349105A105EE
:10230000B10539F427FF09C0205C3F4F4F4F5F4FA5
:1023100004C0215C3F4F4F4F5F4FE0E0F0E02030C2
:10232000A0E03A07A0E04A07A0E45A0710F0E1E075
:10233000F0E079018A0127C06038710564F5FB017E
:10234000E158FF4FD801C7018F779070A070B0702F
:1023500080349105A105B10539F4E7FE0DC080E494
:1023600090E0A0E0B0E004C08FE390E0A0E0B0E037
:10237000E80EF91E0A1F1B1F17FF05C016950795CB
:10238000F794E794319687E016950795F794E794CC
:102390008A95D1F705C0EE24FF248701EFEFF0E026
:1023A0006E2F679566276795902F9F77D794DD24CA
:1023B000D7948E2F8695492F462B582F5D29B7012C
:1023C000CA011F910F91FF90EF90DF900895FC01DB
:1023D000DB01408151812281622F6F7770E0221FE3
:1023E0002227221F9381892F880F822B282F30E0EC
:1023F000991F9927991F11969C93119721153105C3
:10240000A9F5411551056105710511F482E037C048
:1024100082E89FEF13969C938E9312979A01AB01DB
:1024200067E0220F331F441F551F6A95D1F783E0E1
:102430008C930DC0220F331F441F551F12968D9190
:102440009C911397019713969C938E93129720302B
:1024500080E0380780E0480780E4580758F3149676
:102460002D933D934D935C93179708952F3F31051E
:1024700079F4411551056105710519F484E08C93D7
:10248000089564FF03C081E08C9312C01C9210C0B9
:102490002F57304013963C932E93129783E08C93E2
:1024A00087E0440F551F661F771F8A95D1F7706428
:1024B00014964D935D936D937C93179708951F9396
:1024C000DC01FB019C91923008F447C0808182308E
:1024D00008F443C0943051F411961C91843099F55E
:1024E0008181682F70E0611B71093FC0843021F049
:1024F000923031F48230B9F18181882389F12DC085
:1025000011961C9111978230F1F081811817D9F43E
:1025100012962D913C911397828193818217930794
:1025200094F028173907BCF014968D919D910D9069
:10253000BC91A02D24813581468157812817390708
:102540004A075B0718F4112341F00AC0821793076A
:10255000A407B50740F4112319F061E070E005C04D
:102560006FEF7FEF02C060E070E0CB011F91089534
:1025700097FB092E07260AD077FD04D00CD006D091
:1025800000201AF4709561957F4F0895F6F79095A5
:1025900081959F4F0895AA1BBB1B51E107C0AA1F3D
:1025A000BB1FA617B70710F0A61BB70B881F991FF4
:1025B0005A95A9F780959095BC01CD0108952F9269
:1025C0003F924F925F926F927F928F929F92AF92C3
:1025D000BF92CF92DF92EF92FF920F931F93CF9310
:1025E000DF93CDB7DEB7CA1BDB0B0FB6F894DEBFA7
:1025F0000FBECDBF09942A88398848885F846E84CD
:102600007D848C849B84AA84B984C884DF80EE8016
:10261000FD800C811B81AA81B981CE0FD11D0FB61F
:10262000F894DEBF0FBECDBFED010895AF92BF920B
:10263000CF92DF92EF92FF920F931F93CF93DF938E
:10264000EC01A880B980CA80DB80A114B104C10468
:10265000D10441F484E2A82E89EDB82E8BE5C82E72
:1026600087E0D82EC601B5012DE133EF41E050E0FF
:102670000E94771627EA31E440E050E00E945816A5
:102680007B018C01C601B5012DE133EF41E050E043
:102690000E947716CA01B9012CEE34EF4FEF5FEFBD
:1026A0000E9458166E0D7F1D801F911F97FF04C05A
:1026B0006150704080409048688379838A839B830F
:1026C0009B013F77C901DF91CF911F910F91FF903F
:1026D000EF90DF90CF90BF90AF9008950E941613B7
:1026E000089581E892E00E9416130895A0E0B0E0FA
:1026F0008093810290938202A0938302B09384021C
:1027000008950F931F93DF93CF93CDB7DEB72E9726
:102710000FB6F894DEBF0FBECDBF0D891E8986E0CF
:102720008C831A8309838FEF9FE79E838D839E019D
:10273000275E3F4FCE0101966F89788DA9010E94D7
:10274000B2132F813885020F131FF80110822E96C5
:102750000FB6F894DEBF0FBECDBFCF91DF911F91B2
:102760000F9108952F923F924F925F926F927F92B6
:102770008F929F92AF92BF92CF92DF92EF92FF9291
:102780000F931F93DF93CF93CDB7DEB72B970FB681
:10279000F894DEBF0FBECDBF3C012B015A01FC01F6
:1027A00017821682838181FD03C06FEF7FEFC6C160
:1027B0009AE0892E1E010894211C311CF30123810B
:1027C000F20123FD859123FF81912F01882309F4D4
:1027D000B2C1853239F423FD859123FF81912F0108
:1027E000853229F490E0B3010E94CE15E7CF982FEF
:1027F000FF24EE249924FFE1FF15D0F09B3269F00D
:102800009C3228F4903259F0933291F40EC09D32EC
:1028100049F0903369F441E024C052E0F52A84E0A5
:10282000F82A28C098E0F92A25C0E0E1FE2A22C053
:10283000F7FC29C0892F80538A3070F4F6FE05C05A
:10284000989C902C1124980E15C0E89CE02C112423
:10285000E80EF0E2FF2A0EC09E3229F4F6FC6BC1AE
:1028600040E4F42A07C09C3619F450E8F52A02C067
:10287000983649F4F20123FD959123FF91912F01A0
:10288000992309F0B8CF892F8554833018F08052EE
:10289000833038F444E050E0A40EB51E5FE3598362
:1028A0000FC0933631F0933779F0933509F056C065
:1028B00020C0F5018081898342E050E0A40EB51E5E
:1028C000610101E010E012C0F501C080D180F6FC8A
:1028D00003C06FEF7FEF02C0692D70E042E050E06F
:1028E000A40EB51EC6010E94C3158C015FE7F52238
:1028F00014C0F501C080D180F6FC03C06FEF7FEFFC
:1029000002C0692D70E042E050E0A40EB51EC60181
:102910000E94B8158C0150E8F52AF3FE07C01AC0D2
:1029200080E290E0B3010E94CE15EA948E2D90E0F3
:1029300008171907A8F30EC0F601F7FC8591F7FEFA
:1029400081916F0190E0B3010E94CE15E110EA94ED
:10295000015010400115110579F7EAC0943611F0C5
:10296000993669F5F7FE08C0F50120813181428171
:10297000538184E090E00AC0F501808191819C013F
:10298000442737FD4095542F82E090E0A80EB91EF1
:102990009FE6F92257FF09C0509540953095219543
:1029A0003F4F4F4F5F4FE0E8FE2ACA01B901A10136
:1029B0002AE030E00E94FA15D82ED21840C0953790
:1029C00029F41F2D1F7E2AE030E01DC01F2D197F26
:1029D0009F3661F0903720F4983509F0ACC00FC0F5
:1029E000903739F0983709F0A6C004C028E030E0ED
:1029F0000AC0106114FD146020E130E004C014FD31
:102A0000166020E132E017FF08C0F5016081718196
:102A10008281938144E050E008C0F501808191817A
:102A2000BC0180E090E042E050E0A40EB51EA101A0
:102A30000E94FA15D82ED2188FE7F82EF122F6FE52
:102A40000BC05EEFF522D91438F4F4FE07C0F2FC97
:102A500005C08FEEF82202C01D2D01C0192DF4FE15
:102A60000DC0FE01ED0DF11D8081803319F499EE4A
:102A7000F92208C01F5FF2FE05C003C08F2D8678C3
:102A800009F01F5F0F2DF3FC14C0F0FE0FC01E15E0
:102A900010F09D2C0BC09D2C9E0C911A1E2D06C073
:102AA00080E290E0B3010E94CE151F5F1E15C0F3B7
:102AB00004C01E1510F4E11A01C0EE2404FF0FC07B
:102AC00080E390E0B3010E94CE1502FF1DC001FD1E
:102AD00003C088E790E00EC088E590E00BC0802F2F
:102AE000867891F001FF02C08BE201C080E2F7FC22
:102AF0008DE290E0B3010E94CE1506C080E390E025
:102B0000B3010E94CE159A94D914C0F3DA94F1015E
:102B1000ED0DF11D808190E0B3010E94CE15DD2006
:102B2000A9F706C080E290E0B3010E94CE15EA94B6
:102B3000EE20C1F743CEF30166817781CB012B965E
:102B40000FB6F894DEBF0FBECDBFCF91DF911F91BE
:102B50000F91FF90EF90DF90CF90BF90AF909F903C
:102B60008F907F906F905F904F903F902F9008953F
:102B7000FC010590615070400110D8F78095909548
:102B80008E0F9F1F0895FC0161507040019001104D
:102B9000D8F7809590958E0F9F1F08950F931F93E0
:102BA000CF93DF938C01EB018B8181FF1BC082FFF0
:102BB0000DC02E813F818C819D812817390764F4D7
:102BC000E881F9810193F983E88306C0E885F985F6
:102BD000802F0995892B31F48E819F8101969F83E7
:102BE0008E8302C00FEF1FEFC801DF91CF911F91BD
:102BF0000F910895FA01AA27283051F1203181F16F
:102C0000E8946F936E7F6E5F7F4F8F4F9F4FAF4FF4
:102C1000B1E03ED0B4E03CD0670F781F891F9A1F07
:102C2000A11D680F791F8A1F911DA11D6A0F711DBB
:102C3000811D911DA11D20D009F468943F912AE0C7
:102C4000269F11243019305D3193DEF6CF010895AF
:102C5000462F4770405D4193B3E00FD0C9F7F6CFE0
:102C6000462F4F70405D4A3318F0495D31FD4052A8
:102C7000419302D0A9F7EACFB4E0A695979587953E
:102C800077956795BA95C9F700976105710508951D
:102C90009B01AC010A2E06945795479537952795C9
:102CA000BA95C9F7620F731F841F951FA01D089561
:102CB000629FD001739FF001829FE00DF11D649F20
:102CC000E00DF11D929FF00D839FF00D749FF00DAC
:102CD000659FF00D9927729FB00DE11DF91F639F4D
:102CE000B00DE11DF91FBD01CF011124089597FB1F
:102CF000092E05260ED057FD04D014D00AD0001C92
:102D000038F450954095309521953F4F4F4F5F4F88
:102D10000895F6F790958095709561957F4F8F4F48
:102D20009F4F0895A1E21A2EAA1BBB1BFD010DC0E7
:102D3000AA1FBB1FEE1FFF1FA217B307E407F5076B
:102D400020F0A21BB30BE40BF50B661F771F881F47
:102D5000991F1A9469F760957095809590959B01DD
:0C2D6000AC01BD01CF010895F894FFCF35
:102D6C005374617274206D656E7520746573742E66
:102D7C000050726573732073776974636820746F85
:102D8C002073746172742E00596F752064696564C8
:102D9C0021002534640000F81F00108496006400A4
:102DAC002D00000000000000002D000000000000BD
:102DBC0000002D00000000000000000103322D0077
:102DCC00000000000000002D0000000000000000CA
:102DDC002D000000000000000000000000000000BA
:102DEC0000000102020303030304040404040404AA
:102DFC000405050505050505050505050505050578
:102E0C000506060606060606060606060606060657
:102E1C000606060606060606060606060606060646
:102E2C000607070707070707070707070707070727
:102E3C000707070707070707070707070707070716
:102E4C000707070707070707070707070707070706
:102E5C0007070707070707070707070707070707F6
:102E6C0007080808080808080808080808080808D7
:102E7C0008080808080808080808080808080808C6
:102E8C0008080808080808080808080808080808B6
:102E9C0008080808080808080808080808080808A6
:102EAC000808080808080808080808080808080896
:102EBC000808080808080808080808080808080886
:102ECC000808080808080808080808080808080876
:102EDC000808080808080808080808080808080866
:062EEC00080100000000D7
:00000001FF
